:020000040800F2
:10000000300700205102000881150008451400083F
:100010007D1500086B040008A5150008000000000D
:10002000000000000000000000000000871500082C
:100030006F040008000000008515000889150008FD
:100040006B0200086B0200086B0200086B020008DC
:100050006B0200086B0200086B0200086B020008CC
:100060006B0200086B0200086B0200086B020008BC
:100070006B0200086B0200086B0200086B020008AC
:100080006B0200086B0200086B0200086B0200089C
:100090006B0200086B0200086B0200086B0200088C
:1000A0006B0200086B0200086B0200086B0200087C
:1000B0006B0200086B0200086B0200086B0200086C
:1000C0006B0200086B0200086B0200086B0200085C
:1000D0006B0200086B0200086B0200086B0200084C
:1000E0006B0200086B0200086B0200086B0200083C
:1000F0006B0200086B0200086B0200086B0200082C
:100100006B0200086B0200086B0200086B0200081B
:100110006B0200086B0200086B0200086B0200080B
:100120006B0200086B0200086B0200086B020008FB
:100130006B0200086B0200086B0200086B020008EB
:100140006B0200086B0200086B0200086B020008DB
:100150006B0200086B0200086B0200086B020008CB
:100160006B0200086B0200086B0200086B020008BB
:100170006B0200086B0200086B0200080000000020
:100180006B0200086B0200086B0200086B0200089B
:100190006B0200086B0200086B0200086B0200088B
:1001A00000000000000000006B02000800F002F8F0
:1001B00000F03EF80AA090E8000C82448344AAF1C3
:1001C0000107DA4501D100F033F8AFF2090EBAE8C1
:1001D0000F0013F0010F18BFFB1A43F0010318477B
:1001E000E017000000180000103A24BF78C878C15A
:1001F000FAD8520724BF30C830C144BF04680C602D
:10020000704700000023002400250026103A28BF74
:1002100078C1FBD8520728BF30C148BF0B60704778
:100220001FB501F0BBFB00F0D5F81FBD10B510BD28
:1002300000F0E2F81146FFF7F3FF01F067FB00F072
:1002400000F903B4FFF7F2FF03BC00F007F9000068
:100250000948804709480047FEE7FEE7FEE7FEE75A
:10026000FEE7FEE7FEE7FEE7FEE7FEE70448054996
:10027000054A064B7047000091150008AD010008C3
:100280003001002030070020300300203003002020
:1002900053EA020C00F069802DE9F04B4FF00006A4
:1002A000002B1FBFB3FA83F503FA05F424FA05F611
:1002B0005E4012BF1643B2FA82F502FA05F4C5F1A8
:1002C00020051EBF22FA05FC44EA0C04203556EA3C
:1002D000044C4FEA144418BF641C4FF000084FF060
:1002E0000009904271EB030C39D3002919BFB1FA10
:1002F00081F701FA07F6B0FA80F700FA07F6C7F1BE
:1003000020071EBF20FA07FC46EA0C062037B6FB82
:10031000F4FCA7EB0507103F07F01F0BCBF12006FD
:100320000CFA0BFB2CFA06F644BFB3460026202F2E
:10033000A4BF5E464FF0000B5BEA060C08BF4FF00F
:10034000010B19EB0B09ABFB027C48EB0608C01B49
:1003500006FB02CC0BFB03CC71EB0C01C1E70B4697
:10036000024641464846BDE8F08B13B54FF0000009
:100370004FF00001AFF30080BDE81C4070474FF024
:10038000000200B5134694469646203922BFA0E8E5
:100390000C50A0E80C50B1F12001BFF4F7AF0907F1
:1003A00028BFA0E80C5048BF0CC05DF804EB8900E2
:1003B00028BF40F8042B08BF704748BF20F8022B25
:1003C00011F0804F18BF00F8012B7047704770473D
:1003D0007047000070B5064C7C44064D7D4403E038
:1003E000206820448047241DAC42F9D170BD000034
:1003F0000416000004160000754600F02BF8AE4607
:1004000005006946534620F00700854618B020B520
:10041000FFF72CFFBDE820404FF000064FF000072B
:100420004FF000084FF0000B21F00701AC46ACE89C
:10043000C009ACE8C009ACE8C009ACE8C0098D4609
:10044000704710B50446AFF300802046BDE8104069
:10045000FFF7F7BE00487047D00000200149182080
:10046000ABBEFEE726000200704700BFFEE7704704
:1004700072B600BFFEE7F0B504460D461E4694F87E
:10048000207020688368A86800B900E000BF012FD1
:1004900001D0022F7DD103F0806030B903F00060FD
:1004A00018B903F0805000287ED0C3F30161012009
:1004B00088403060A86860B9B5F800C0E86840EAD4
:1004C0004C5C206800F5C07000EB0110C0F800C063
:1004D0000FE0D5E901C040EACC00D5F80CC040EAF5
:1004E0000C00D4F800C00CF5C07C0CEB011CCCF85F
:1004F0000000D5F810C0206800F5C07000EB0110B6
:10050000C0F804C0287D01280ED1206800F5C07015
:1005100000EB0110406840F4807C206800F5C0705A
:1005200000EB0110C0F804C0D079000692F806C0B4
:1005300040EA0C4092F805C040EA0C2092F804C052
:1005400040EA0C00D4F800C00CF5C07C0CEB011C98
:10055000CCF80C00D078000692F802C040EA0C40BB
:1005600092F801C040EA0C2092F800C040EA0C006A
:10057000D4F800C00CF5C07C0CEB011CCCF80800D2
:10058000206800F5C07000EB0110006840F0010C1D
:1005900001E00FE008E0206800F5C07000EB0110FA
:1005A000C0F800C00020F0BD606A40F40010606236
:1005B0000120F8E7606A40F4802060620120F2E7E1
:1005C00070B504460CB9012070BD94F8200010B934
:1005D000204600F0AFF82068006840F00100216874
:1005E000086000F09BFA05460DE000F097FA401B0A
:1005F0000A2808D9606A40F400306062052084F857
:1006000020000120E0E72068406800F00100002899
:10061000EBD02068006820F002002168086000F03C
:100620007DFA05460DE000F079FA401B0A2808D94A
:10063000606A40F400306062052084F820000120E8
:10064000C2E72068406800F002000028EBD1207E5D
:10065000012806D12068006840F080002168086009
:1006600005E02068006820F0800021680860607E56
:10067000012806D12068006840F040002168086029
:1006800005E02068006820F0400021680860A07E36
:10069000012806D12068006840F020002168086029
:1006A00005E02068006820F0200021680860E07EF6
:1006B000012806D12068006820F010002168086039
:1006C00005E02068006840F0100021680860207F85
:1006D000012806D12068006840F008002168086001
:1006E00005E02068006820F0080021680860607F4D
:1006F000012806D12068006840F0040021680860E5
:1007000005E02068006820F0040021680860D4E952
:100710000201084321690843616908436168491E71
:1007200008432168C86100206062012084F820002D
:10073000002049E710B586B00446142101A8FFF750
:100740001EFE47492068884239D146480068401C4F
:10075000444908600846006801280FD100BF002006
:1007600000904148006840F000703F49086008462A
:10077000006800F00070009000BF00BF00BF0020C4
:10078000009039481038006840F0080036491039A8
:1007900008600846006800F00800009000BF00BF35
:1007A0000320019002200290002003900320049077
:1007B0000920059001A92D4800F0A2F84DE02C4930
:1007C0002068884249D100BF002000902648006878
:1007D00040F08060244908600846006800F08060AE
:1007E000009000BF00BF1F480068401C1D49086002
:1007F0000846006801280FD100BF002000901A4869
:10080000006840F00070184908600846006800F071
:100810000070009000BF00BF00BF00200090124891
:100820001038006840F002000F491039086008468F
:10083000006800F00200009000BF00BF4FF440507D
:1008400001900220029000200390032004900920D0
:10085000059001A9074800F053F806B010BD00004C
:10086000006400400000002040380240000C0240BC
:10087000006800400004024070B5044694F820006F
:10088000012822D1022084F820002068006820F08E
:1008900001002168086000F041F905460DE000F014
:1008A0003DF9401B0A2808D9606A40F400306062B4
:1008B000052084F82000012070BD2068406800F009
:1008C00001000028EBD16062F6E7606A40F4002086
:1008D00060620120F0E7000070B5044600F01EF9E8
:1008E00006462546681C10B104480078054400BF40
:1008F00000F014F9801BA842FAD370BD0C00002050
:10090000F8B502460B460025002400200021E0E057
:10091000012606FA01F51E6806EA0504AC4274D108
:100920001E7906F00306012E04D01E7906F0030698
:10093000022E13D190684F000326BE40B0434F00F3
:10094000DE68BE4030439060506801268E40B04360
:100950001E79C6F300168E40304350601E7906F0B3
:100960000306032E09D0D0684F000326BE40B043D3
:100970004F009E68BE403043D0601E7906F00306EB
:10098000022E13D1CF0802F1200656F827004E0799
:10099000F70E0F26BE40B0434F07FF0E1E69BE4044
:1009A0003043CF0802F1200646F8270010684F00B8
:1009B0000326BE40B0431E7906F003064F00BE403A
:1009C000304310605E6806F44036002E1DD000BF34
:1009D00000260096414E366846F480463F4F3E6002
:1009E0003E46366806F48046009600BF00BF3C4E87
:1009F0008F0856F827008E07370F0F26BE40B043EA
:100A0000384EB24202D100262EE061E0364EB242AC
:100A100001D1012628E0354EB24201D1022623E061
:100A2000334EB24201D103261EE0324EB24201D112
:100A3000042619E0304EB24201D1052614E02F4EB3
:100A4000B24201D106260FE02D4EB24201D1072657
:100A50000AE02C4EB24201D1082605E02A4EB242ED
:100A600001D1092600E00A268F073F0FBE40304320
:100A70001B4E8F0846F82700244E3068A0435E685E
:100A800006F4801606B12043204E3060361D3068D3
:100A9000A0435E6806F4001606B120431B4E361DC7
:100AA00030601A4E361F3068A0435E6806F4003688
:100AB00006B12043154E361F3060361F3068A04304
:100AC0005E6806F4803606B12043104E083E306062
:100AD000491C1029FFF41CAFF8BD00004438024047
:100AE00008380140000002400004024000080240B3
:100AF000000C0240001002400014024000180240A6
:100B0000001C02400020024000240240083C01403A
:100B10000AB1816101E00B048361704701480068FC
:100B2000704700000400002003480068034909786A
:100B30000844014908607047040000200C000020B0
:100B400010B50D48006840F400700B490860084675
:100B5000006840F4806008600846006840F48070D7
:100B60000860032000F092F80F2000F007F800F072
:100B70002BF8002010BD0000003C024070B5044678
:100B80000E4800784FF47A71B1FBF0F00C49096817
:100B9000B1FBF0F5284600F03BFC08B1012070BD28
:100BA000102C07D200222146501E00F031F80548D3
:100BB000046001E00120F2E70020F0E70C000020D3
:100BC000100000200800002008B500BF00200090A1
:100BD0000E48006840F480400C49086008460068F0
:100BE00000F48040009000BF00BF00BF00200090D4
:100BF000081F006840F08050091F08600846006820
:100C000000F08050009000BF00BF08BD4438024093
:100C10002DE9F05F80460D461646002700F056FE8F
:100C2000074639462A46334601F00700C0F1070A55
:100C3000BAF1040F02D94FF0040A01E0C0F1070A2B
:100C4000D14600F1040ABAF1070F02D24FF0000AB0
:100C500001E0A0F1030AD4464FF0010A0AFA09FAAA
:100C6000AAF1010A0AEA020A0AFA0CFA4FF0010B89
:100C70000BFA0CFBABF1010B0BEA030B4AEA0B047A
:100C80002146404600F00EFEBDE8F09F00BF00F098
:100C90000702064B19684FF6FF031940044B0B433C
:100CA00043EA0221014B196000BF70470CED00E0E0
:100CB0000000FA0538B5002400BF002000901D4850
:100CC000006840F080501B4908600846006800F04A
:100CD0008050009000BF00BF012017490864FFF753
:100CE0001DFF044607E0FFF719FF001BB0F57A7FF0
:100CF00001D9032038BD1148406800F48030B0F5B8
:100D0000803FF0D101200C494864FFF707FF0446FB
:100D100007E0FFF703FF001BB0F57A7F01D903203E
:100D2000E8E70648406800F40030B0F5003FF0D135
:100D30000020DFE74038024000000E420070004013
:100D400070B504460D460CB9012070BD58480068C6
:100D500000F00F00A84209D255490D7008460068FE
:100D600000F00F00A84201D00120EEE7207800F04B
:100D7000020002281DD1207800F00400042805D1CB
:100D80004C48006840F4E0504A490860207800F080
:100D90000800082805D14748006840F460404549EC
:100DA00008604448006820F0F000A1680843414909
:100DB0000860207800F00100A8B36068012807D11E
:100DC0003C4808380068C0F34040B8B90120BCE78F
:100DD0006068022802D06068032807D135480838C7
:100DE0000068C0F3406048B90120AEE731480838D8
:100DF0000068C0F3400008B90120A6E72D4800684C
:100E000020F00300616808432A490860FFF786FE66
:100E1000064609E0FFF782FE801B41F288318842D6
:100E200002D9032091E707E02248006800F00C0097
:100E30006168B0EB810FEDD11D48006800F00F0034
:100E4000A84209D91A490D700846006800F00F0041
:100E5000A84201D0012078E7207800F0040004289F
:100E600007D11448006820F4E050E16808431149B4
:100E70000860207800F00800082808D10D480068B4
:100E800020F46040216940EAC1000A49086000F08E
:100E900019F808490968C1F30311074A515CC840B1
:100EA0000649086006480068FFF768FE00204CE726
:100EB000003C024008380240A6190008100000203B
:100EC000080000202DE9F047002400250026A14657
:100ED0002548006800F00C0020B1042805D008283F
:100EE0003AD105E0DFF8849039E0DFF8849036E00D
:100EF0001D48001F006800F03F041B48001F0068E9
:100F000000F4800078B11A481749091F0968C1F335
:100F10008811A0FB01700146224600233846FFF7E6
:100F2000B7F905460EE011480F49091F0968C1F3DA
:100F30008811A0FB01700146224600233846FFF7C6
:100F4000A7F905460848001F0068C0F30140401C8F
:100F50004600B5FBF6F902E0DFF8109000BF00BFD5
:100F60004846BDE8F0870000083802400024F4003D
:100F7000001BB700F8B504460CB90120F8BD207875
:100F800000F00100002874D0F948006800F00C005F
:100F900004280DD0F648006800F00C00082813D192
:100FA000F348001F006800F48000B0F5800F0BD1FB
:100FB000EF4808380068C0F34040002859D0606806
:100FC000002856D10120D9E700BF6068B0F5803F06
:100FD00008D1E7480838006840F48030E44908390F
:100FE00008601EE06068B0F5A02F0DD1E048083819
:100FF000006840F48020DE4908390860084600682F
:1010000040F4803008600CE0D9480838006820F4CB
:101010008030D749083908600846006820F48020ED
:10102000086000BF606890B1FFF778FD054606E0F4
:10103000FFF774FD401B642801D903209EE7CC48CC
:1010400008380068C0F340400028F1D011E0FFF7F5
:1010500065FD054606E0FFF761FD401B642801D9E8
:1010600003208BE7C24808380068C0F340400028DE
:10107000F1D1207800F0020002285FD1BC4800685E
:1010800000F00C0058B1BA48006800F00C000828C5
:101090001CD1B748001F006800F48000B0B9B44804
:1010A00008380068C0F3400020B1E068012801D092
:1010B000012063E7AE480838006820F0F800216995
:1010C00040EAC100AA490839086037E0E06800B387
:1010D0000120A8490860FFF721FD054606E0FFF75B
:1010E0001DFD401B022801D9032047E7A04808380E
:1010F0000068C0F340000028F1D09D48083800681F
:1011000020F0F800216940EAC100994908390860D7
:1011100014E0002097490860FFF700FD054606E04F
:10112000FFF7FCFC401B022801D9032026E790486A
:1011300008380068C0F340000028F1D1207800F0A2
:10114000080008282CD16069A8B101208A490860EC
:10115000FFF7E4FC054606E0FFF7E0FC401B022831
:1011600001D903200AE782486C300068C0F34000D0
:101170000028F1D014E000207F490860FFF7CEFC82
:10118000054606E0FFF7CAFC401B022801D90320F0
:10119000F4E677486C300068C0F340000028F1D1D5
:1011A000207800F00400042870D1002770483830FF
:1011B000006800F0805090B900BF002000906C489B
:1011C0003830006840F0805069493831086008467E
:1011D000006800F08050009000BF00BF0127674802
:1011E000006800F48070B0B96448006840F4807012
:1011F00062490860FFF792FC054606E0FFF78EFCA7
:10120000401B022801D90320B8E65C48006800F4BE
:1012100080700028F2D000BFA068012808D154488F
:101220006830006840F001005149683108601DE0F5
:10123000A06805280DD14E486830006840F00400D1
:101240004B49683108600846006840F001000860BA
:101250000CE047486830006820F0010044496831DC
:1012600008600846006820F00400086000BFA0681D
:10127000A8B1FFF753FC054609E0FFF74FFC401B00
:1012800041F28831884202D9032077E626E03848C7
:1012900068300068C0F340000028EED013E0FFF78C
:1012A0003DFC054608E0FFF739FC401B41F2883160
:1012B000884201D9032061E62D4868300068C0F3F8
:1012C00040000028EFD1012F07D1294838300068AD
:1012D00020F0805026493831086000BFA0690028FE
:1012E00045D02348006800F00C0008285DD0A069B4
:1012F000022845D100201F490866FFF70FFC05466C
:1013000006E0FFF70BFC401B022801D9032035E65D
:10131000174808380068C0F340600028F1D1D4E9CC
:1013200007010843616A40EA81110122A06AC2EB09
:10133000500041EA00412C20005D41EA00600C4968
:10134000091F086001200B490866FFF7E7FB054607
:1013500006E0FFF7E3FB401B022801D903200DE65E
:10136000034808380068C0F340600028F1D049E025
:101370000838024000004742800E4742007000409B
:10138000002021490866FFF7C9FB054606E0FFF784
:10139000C5FB401B022801D90320EFE51B4800686C
:1013A000C0F340600028F2D12CE0A069012800D1F0
:1013B000E4E51648001D0668A069012820D006F45F
:1013C0008001E06981421BD106F03F01206A814221
:1013D00016D147F6C0703040616AB0EB811F0FD163
:1013E00006F440310122A06AC2EB5000B1EB004F7D
:1013F00006D106F070612C20005DB1EB006F01D0CA
:101400000120BBE50020B9E500004742003802405A
:1014100070B504462546681EB0F1807F01D30120D7
:101420000FE0681E4FF0E02148610F214FF0FF30C0
:1014300000F038FA00204FF0E021886107200861B1
:10144000002070BD00BFFEE710B50D480D490860D3
:101450000920486000210B488160C1604FF4803151
:101460000161090141610021017641768176C176F1
:1014700001774177FFF7A4F808B1FEF7F9FF10BD37
:10148000006400406000002010B50D480D49086060
:101490000920486000210B488160C1604FF4803111
:1014A0000161090141610021017641768176C176B1
:1014B00001774177FFF784F808B1FEF7D9FF10BD37
:1014C000006800408800002000B587B0142102A801
:1014D000FEF755FF00BF002001902648006840F04D
:1014E0000100244908600846006800F001000190EE
:1014F00000BF00BF00BF002001900846006840F018
:10150000080008600846006800F00800019000BF6D
:1015100000BF00BF002001900846006840F0800036
:1015200008600846006800F08000019000BF00BF1E
:1015300000BF002001900846006840F002000860EB
:101540000846006800F00200019000BF00BF0022C2
:101550003C210948FFF7DCFA3C200290012003906F
:1015600004900020059002A90348FFF7C9F907B0CD
:1015700000BD000030380240001C024000BFFEE702
:1015800000BFFEE77047704710B5FFF7CDFA10BDFA
:101590000348006840F4700001490860704700008B
:1015A00088ED00E000BFFEE710B50446224610219A
:1015B0000148FFF7ADFA10BD001C024010B504460B
:1015C000224620210148FFF7A3FA10BD001C02406B
:1015D00010B50446224604210148FFF799FA10BDD0
:1015E000001C024010B50446224608210148FFF7BE
:1015F0008FFA10BD001C0240F0B587B006460C46BD
:1016000017461D4601940020029003900490059512
:101610006B463A4601A93046FEF72DFF07B0F0BDF4
:101620007047000000B593B0302107A8FEF7A7FE71
:10163000142102A8FEF7A3FE00BF00200190264857
:10164000006840F08050244908600846006800F0B7
:101650008050019000BF00BF00BF002001901F48D4
:10166000006840F440401D4908600846006800F4E6
:101670004040019000BF00BF012007900004089087
:1016800002200D9041050E9106210F91B421109179
:10169000022111910421129107A8FFF76BFC08B1F8
:1016A000FEF7E6FEFFF706FB08B1FEF7E1FE0F20AE
:1016B000029002200390002004904FF4A050059067
:1016C0004FF480500690052102A8FFF739FB08B1BE
:1016D000FEF7CEFE13B000BD40380240007000405F
:1016E00010B52DED028B0446B0EE408AF0EE608A14
:1016F00004F00100FFF762FFC4F34000FFF754FF5E
:10170000C4F38000FFF76EFFC4F3C000FFF760FF73
:10171000012121EA141000F0B9F8012121EA541046
:1017200000F0A8F8012121EA941000F051F80121FD
:1017300021EAD41000F056F8012121EA142000F02B
:101740005BF8012121EA542000F060F8012121EA30
:10175000942000F065F8012121EAD42000F06AF815
:10176000012121EA143000F06FF8012121EA543000
:1017700000F074F8BDEC028B10BD000070B504469B
:101780000D462046FFF778F82068406940F00200D7
:10179000216848612068406940F010002168486174
:1017A00007492068884203D106480460456006E086
:1017B00005492068884202D104480460456070BD34
:1017C0000064004014000020006800401C0000205D
:1017D00010B50446224602210148FFF799F910BDD1
:1017E0000018024010B50446224604210148FFF7C4
:1017F0008FF910BD0018024010B50446224608219A
:101800000148FFF785F910BD0018024010B50446E5
:10181000224610210148FFF77BF910BD0018024055
:1018200010B50446224620210148FFF771F910BD8A
:101830000018024010B50446224640210148FFF737
:1018400067F910BD0018024010B5044622468021F9
:101850000148FFF75DF910BD0018024010B50446BD
:1018600022464FF480710248FFF752F910BD000084
:101870000018024010B5044622464FF48041024849
:10188000FFF746F910BD00000014024010B50446F1
:1018900022464FF400610248FFF73AF910BD0000FC
:1018A0000010024010B5002804DB0A07130E054A99
:1018B000135406E00A07140E034A00F00F031B1F1F
:1018C000D45410BD00E400E018ED00E002480068C8
:1018D000C0F30220704700000CED00E000200A4930
:1018E000087008704860486008720872C860C86074
:1018F0000120086108610020486148610876087687
:10190000C861C86170470000B0000020FFF718F9F7
:10191000FFF788FEFFF7D8FDFFF796FDFFF7B4FD50
:10192000DFED1A0A9FED190A0F20FFF7D9FE1849BB
:101930001848FFF723FF002427E00FE004F13200EE
:1019400004B2200A144908704C7008230A46990111
:101950001048FFF751FE3220FEF7BEFFB4F57A7F44
:10196000ECDB0FE0A4F1320004B2200A0A4908704F
:101970004C7008230A4699010648FFF73DFE3220C5
:10198000FEF7AAFF14F57A7FECDCD6E70000000032
:1019900021160008600000202C0000204FF040704D
:1019A000E1EE100A70470000000000000000010294
:1019B00003040607080900000000010203040000F8
:1019C000E41900080000002060000000E8010008A1
:1019D000441A000860000020D0060000040200083D
:1019E000FDFEFFFF000000000000000010000000EE
:1019F000010000000024F4000000000000000000CE
:101A000000000000000000000000000000000000D6
:101A100000000000000000000000000000000000C6
:101A200000000000000000000000000000000000B6
:101A300000000000000000000000000000000000A6
:041A400000000000A2
:04000005080001AD41
:00000001FF
