:020000040800F2
:10000000981C002075020008812600085B24000867
:100010007D2600086F0500089528000800000000F4
:10002000000000000000000000000000872600081B
:1000300095050008000000008526000889260008B4
:100040008F0200088F0200088F0200088F0200084C
:100050008F0200088F0200088F0200088F0200083C
:100060008F0200088F0200088F0200088F0200082C
:100070008F0200088F0200088F0200088F0200081C
:1000800075050008850500088F0200088F0200082A
:100090008F0200088F0200088F0200088F020008FC
:1000A0008F0200088F0200088F0200088F020008EC
:1000B000A52600088F0200088F0200088F020008A2
:1000C0008F0200088F0200088F0200088F020008CC
:1000D0008F0200088F020008852800088F020008A0
:1000E0008F0200088F0200088F0200088F020008AC
:1000F0008F0200088F0200088F0200088F0200089C
:100100008F0200088F0200088F0200088F0200088B
:100110008F0200088F0200088F0200088F0200087B
:100120008F0200088F0200088F0200088F0200086B
:100130008F0200088F0200088F0200088F0200085B
:100140008F0200088F0200088F0200088F0200084B
:100150008F0200088F0200088F0200088F0200083B
:100160008F0200088F0200088F0200088F0200082B
:100170008F0200088F0200088F02000800000000B4
:100180008F0200088F0200088F0200088F0200080B
:100190008F0200088F0200088F0200088F020008FB
:1001A00000000000000000008F02000800F002F8CC
:1001B00000F050F80AA090E8000C82448344AAF1B1
:1001C0000107DA4501D100F045F8AFF2090EBAE8AF
:1001D0000F0013F0010F18BFFB1A43F0010318477B
:1001E00078440000984400000A4410F8014B14F0D1
:1001F0000F0508BF10F8015B240908BF10F8014B78
:100200006D1E05D010F8013B6D1E01F8013BF9D1C0
:10021000641E03D0641E01F8015BFBD19142E4D35C
:10022000704700000023002400250026103A28BF54
:1002300078C1FBD8520728BF30C148BF0B60704758
:100240001FB504F04EF900F0C2F800F035F91FBDFB
:1002500010B510BD00F056F91146FFF7F1FF03F09D
:10026000D1FF00F074F903B4FFF7F2FF03BC00F014
:1002700077F900000948804709480047FEE7FEE794
:10028000FEE7FEE7FEE7FEE7FEE7FEE7FEE7FEE746
:1002900004480549054A064B7047000091260008AE
:1002A000AD01000898160020981C00209818002026
:1002B0009818002053EA020C00F069802DE9F04BF9
:1002C0004FF00006002B1FBFB3FA83F503FA05F4C5
:1002D00024FA05F65E4012BF1643B2FA82F502FA1E
:1002E00005F4C5F120051EBF22FA05FC44EA0C0402
:1002F000203556EA044C4FEA144418BF641C4FF0F2
:1003000000084FF00009904271EB030C39D300292B
:1003100019BFB1FA81F701FA07F6B0FA80F700FACF
:1003200007F6C7F120071EBF20FA07FC46EA0C06B5
:100330002037B6FBF4FCA7EB0507103F07F01F0BB7
:10034000CBF120060CFA0BFB2CFA06F644BFB346A1
:100350000026202FA4BF5E464FF0000B5BEA060C80
:1003600008BF4FF0010B19EB0B09ABFB027C48EB0C
:100370000608C01B06FB02CC0BFB03CC71EB0C0187
:10038000C1E70B46024641464846BDE8F08B13B52F
:100390004FF000004FF00001AFF30080BDE81C40BB
:1003A000704700000B4910B5A1F17C020A4CC2E96C
:1003B0003712372106E000EB104342F82130074B9B
:1003C00000FB03400B1EA1F10101F4DC10BD012074
:1003D000E8E70000D0150020E119D666CD0D010038
:1003E0004FF0000200B5134694469646203922BFCE
:1003F000A0E80C50A0E80C50B1F12001BFF4F7AF19
:10040000090728BFA0E80C5048BF0CC05DF804EBFA
:10041000890028BF40F8042B08BF704748BF20F868
:10042000022B11F0804F18BF00F8012B704700001D
:100430004FF0013C50F8042B51F8043B9A4221D173
:10044000A2EB0C03934313EACC1317D150F8042BFF
:1004500051F8043B9A4215D1A2EB0C03934313EAE3
:10046000CC130BD150F8042B51F8043B9A4209D11C
:10047000A2EB0C03934313EACC13DBD04FF0000044
:10048000704700BFD01A01BAB1FA81F101F018012A
:1004900022FA01F0CB40C1F12001DBB2C0B2C01A98
:1004A0002CFA01F3D11A914311EAC311E6D1704736
:1004B000704770477047000070B5064C7C44064D8D
:1004C0007D4403E0206820448047241DAC42F9D1DC
:1004D00070BD0000B8410000BC41000010B500F044
:1004E00009F8006810BD10B5044600F003F8046078
:1004F00010BD0000004870473816002000487047C3
:10050000381600207546FFF7F9FFAE46050069462C
:10051000534620F00700854618B020B5FFF7B8FE17
:10052000BDE820404FF000064FF000074FF00008F4
:100530004FF0000B21F00701AC46ACE8C009ACE875
:10054000C009ACE8C009ACE8C0098D46704710B5D9
:100550000446AFF300802046BDE81040FFF783BE9D
:1005600001491820ABBEFEE726000200704700BF1D
:10057000FEE7000010B5024800F038FA10BD000098
:100580001404002010B5024800F030FA10BD00003D
:1005900074040020704772B600BFFEE7F0B5044651
:1005A0000A4694F82050012D01D0022D7ED14249F7
:1005B00001F50071086840F001000860086820F447
:1005C0007C5008600868566A40EA06200860107D82
:1005D00000F01F06012000FA06F3C8699843C861BD
:1005E000A1F50071D069C8B9D1F80C029843C1F8DF
:1005F0000C02908880B2968940EA064601F5107098
:10060000576940F83760108880B2168940EA06467C
:1006100001F51070576900EBC7004660D0690128EA
:1006200019D1D1F80C021843C1F80C02908880B29D
:10063000168840EA064601F51070576940F83760A1
:10064000908980B2168940EA064601F51070576914
:1006500000EBC7004660906928B9D1F804029843BE
:10066000C1F8040204E0D1F804021843C1F80402FE
:10067000106928B9D1F814029843C1F8140204E0B3
:10068000D1F814021843C1F81402106A012804D1E9
:10069000D1F81C021843C1F81C02D1F8000220F066
:1006A0000100C1F800020020F0BDFFE7606A40F4DD
:1006B000802060620120F7E70064004070B50446C6
:1006C0000CB9012070BD94F8200010B9204600F04C
:1006D000AFF82068006840F001002168086000F071
:1006E00091FC05460DE000F08DFC401B0A2808D95E
:1006F000606A40F400306062052084F82000012028
:10070000E0E72068406800F001000028EBD0206896
:10071000006820F002002168086000F073FC0546C4
:100720000DE000F06FFC401B0A2808D9606A40F415
:1007300000306062052084F820000120C2E72068B4
:10074000406800F002000028EBD1207E012806D18D
:100750002068006840F080002168086005E020689B
:10076000006820F0800021680860607E012806D1C2
:100770002068006840F040002168086005E02068BB
:10078000006820F0400021680860A07E012806D1A2
:100790002068006840F020002168086005E02068BB
:1007A000006820F0200021680860E07E012806D162
:1007B0002068006820F010002168086005E02068CB
:1007C000006840F0100021680860207F012806D1F1
:1007D0002068006840F008002168086005E0206893
:1007E000006820F0080021680860607F012806D1B9
:1007F0002068006840F004002168086005E0206877
:10080000006820F0040021680860D4E90201084370
:1008100021690843616908436168491E08432168EA
:10082000C86100206062012084F82000002049E7B0
:1008300010B586B00446142101A8FFF7D1FD1B496D
:10084000206888422FD100BF00200090184800681F
:1008500040F00070164908600846006800F000701B
:10086000009000BF00BF00BF00200090104810386B
:10087000006840F008000E4910390860084600681A
:1008800000F00800009000BF00BF0320019002208C
:10089000029000200390032004900920059001A9F4
:1008A000044800F097FA06B010BD00000064004054
:1008B00040380240000C024070B5044694F8200015
:1008C000012822D1022084F820002068006820F04E
:1008D00001002168086000F095FB05460DE000F07E
:1008E00091FB401B0A2808D9606A40F4003060621E
:1008F000052084F82000012070BD2068406800F0C9
:1009000001000028EBD16062F6E7606A40F4002045
:1009100060620120F0E770B50446A56D00F072FB3F
:10092000064694F83500022808D08020606500BF94
:10093000002084F8340000BF012070BD20680068EA
:1009400020F01600216808602068406920F08000CF
:1009500021684861206C08B9A06C28B12068006843
:1009600020F00800216808602068006820F001007D
:100970002168086010E000F045FB801B05280BD9BA
:1009800020206065032084F8350000BF002084F833
:10099000340000BF0320D0E72068006800F00100A9
:1009A0000028E8D194F85C103F208840A86001201E
:1009B00084F8350000BF002084F8340000BF00BF79
:1009C000BBE7014691F83500022803D08020486536
:1009D00001207047052081F835000868006820F084
:1009E00001000A6810600020F3E70000F8B5044633
:1009F000002000908C4800684FF41651B0FBF1F7CE
:100A0000A56D2E6894F85C1008208840304098B19D
:100A10002068006800F0040070B12068006820F0D1
:100A200004002168086094F85C1008208840A860E1
:100A3000606D40F00100606594F85C100120884012
:100A4000304068B12068406900F0800040B194F8FF
:100A50005C1001208840A860606D40F00200606575
:100A600094F85C1004208840304068B12068006829
:100A700000F0020040B194F85C1004208840A860A7
:100A8000606D40F00400606594F85C1010208840B0
:100A9000304078B32068006800F0080050B394F844
:100AA0005C1010208840A8602068006800F4802056
:100AB00080B12068006800F4002028B9206CC8B11B
:100AC0002046216C884715E0A06C98B12046A16CA7
:100AD00088470FE02068006800F4807028B920681B
:100AE000006820F0080021680860206C10B12046E2
:100AF000216C884794F85C10202088403040002802
:100B000065D02068006800F0100000285FD094F8DD
:100B10005C1020208840A86094F83500052828D172
:100B20002068006820F0160021680860206840698D
:100B300020F0800021684861206C08B9A06C28B1C1
:100B40002068006820F008002168086094F85C10B4
:100B50003F208840A860012084F8350000BF0020B5
:100B600084F8340000BF206D10B12046216D884705
:100B7000F8BD2068006800F4802080B1206800681B
:100B800000F4002028B9606C10B12046616C8847E1
:100B90001DE0E06BD8B12046E16B884717E0206884
:100BA000006800F4807068B92068006820F01000C8
:100BB00021680860012084F8350000BF002084F817
:100BC000340000BFE06B10B12046E16B8847606DD8
:100BD00038B3606D00F00100F0B1052084F83500F5
:100BE0002068006820F001002168086000BF0098BC
:100BF000401C0090B84200D905E02068006800F071
:100C000001000028F3D100BF012084F8350000BFA7
:100C1000002084F8340000BFE06C10B12046E16C85
:100C2000884700BFA4E70000CC0100202DE9F04177
:100C30000446002500F0E6F9074614B90120BDE896
:100C4000F081606A00B100BF022084F8350000BF67
:100C5000002084F8340000BF2068006820F0010004
:100C6000216808600AE000F0CDF9C01B052805D90D
:100C700020206065032084F83500E0E720680068E4
:100C800000F001000028EED12068056821480540E9
:100C9000D4E901010843E168084321690843616917
:100CA0000843A1690843E1690843216A08430543F1
:100CB000606A042803D1D4E90B0108430543206886
:100CC00005602068456925F00705606A0543606A8C
:100CD00004280DD1A06A0543E06A48B1204602F01D
:100CE00015FB28B140206065012084F83500A6E797
:100CF00020684561204602F05FFB064694F85C10D0
:100D00003F208840B06000206065012084F83500F5
:100D1000002094E73F8010F02DE9F04704460D468F
:100D200016461F464FF00008D4F8589000BF94F8BC
:100D30003400012802D10220BDE8F087012084F8A8
:100D4000340000BF94F83500012825D1022084F832
:100D50003500002060653B4632462946204602F0B9
:100D6000BFFA94F85C103F208840C9F8080020685A
:100D7000006840F0160021680860206C28B12068E7
:100D8000006840F00800216808602068006840F0B2
:100D900001002168086006E000BF002084F83400EC
:100DA00000BF4FF002084046C6E7000070B5044699
:100DB00000F028F906462546681C10B10448007862
:100DC000054400BF00F01EF9801BA842FAD370BD95
:100DD000C8010020F8B502460B460025002400207B
:100DE0000021E0E0012606FA01F51E6806EA050486
:100DF000AC4274D11E7906F00306012E04D01E7990
:100E000006F00306022E13D190684F000326BE4061
:100E1000B0434F00DE68BE4030439060506801260A
:100E20008E40B0431E79C6F300168E4030435060AA
:100E30001E7906F00306032E09D0D0684F00032662
:100E4000BE40B0434F009E68BE403043D0601E7924
:100E500006F00306022E13D1CF0802F1200656F841
:100E600027004E07F70E0F26BE40B0434F07FF0E78
:100E70001E69BE403043CF0802F1200646F8270025
:100E800010684F000326BE40B0431E7906F00306EB
:100E90004F00BE40304310605E6806F44036002EBE
:100EA0001DD000BF00260096414E366846F48046AD
:100EB0003F4F3E603E46366806F48046009600BFCF
:100EC00000BF3C4E8F0856F827008E07370F0F26BD
:100ED000BE40B043384EB24202D100262EE061E05F
:100EE000364EB24201D1012628E0354EB24201D140
:100EF000022623E0334EB24201D103261EE0324ED9
:100F0000B24201D1042619E0304EB24201D1052689
:100F100014E02F4EB24201D106260FE02D4EB24210
:100F200001D107260AE02C4EB24201D1082605E085
:100F30002A4EB24201D1092600E00A268F073F0F50
:100F4000BE4030431B4E8F0846F82700244E3068C1
:100F5000A0435E6806F4801606B12043204E306040
:100F6000361D3068A0435E6806F4001606B12043C3
:100F70001B4E361D30601A4E361F3068A0435E6827
:100F800006F4003606B12043154E361F3060361F7A
:100F90003068A0435E6806F4803606B12043104EE8
:100FA000083E3060491C1029FFF41CAFF8BD00005A
:100FB000443802400838014000000240000402406A
:100FC00000080240000C02400010024000140240E1
:100FD00000180240001C0240002002400024024091
:100FE000083C014010B5426921EA020302EA01040B
:100FF00043EA0443836110BD0AB1816101E00B043F
:10100000836170470148006870470000C0010020FC
:10101000034800680349097808440149086070479B
:10102000C0010020C801002010B50D48006840F440
:1010300000700B4908600846006840F48060086052
:101040000846006840F480700860032000F0A6F8AD
:101050000F2000F007F800F02BF8002010BD000072
:10106000003C024070B504460E4800784FF47A7197
:10107000B1FBF0F00C490968B1FBF0F5284600F02F
:1010800075FC08B1012070BD102C07D2002221464A
:10109000501E00F045F80548046001E00120F2E729
:1010A0000020F0E7C8010020CC010020C40100208E
:1010B00008B500BF002000900E48006840F4804052
:1010C0000C4908600846006800F48040009000BFAA
:1010D00000BF00BF00200090081F006840F0805053
:1010E000091F08600846006800F08050009000BFAB
:1010F00000BF08BD443802400146084600280DDB09
:1011000000BF00BF00F01F0301229A4043099B006B
:1011100003F1E023C3F8002100BF00BF00BF704708
:101120002DE9F05F80460D461646002702F05CFC74
:10113000074639462A46334601F00700C0F1070A40
:10114000BAF1040F02D94FF0040A01E0C0F1070A16
:10115000D14600F1040ABAF1070F02D24FF0000A9B
:1011600001E0A0F1030AD4464FF0010A0AFA09FA95
:10117000AAF1010A0AEA020A0AFA0CFA4FF0010B74
:101180000BFA0CFBABF1010B0BEA030B4AEA0B0465
:101190002146404602F014FCBDE8F09F00BF00F07D
:1011A0000702064B19684FF6FF031940044B0B4327
:1011B00043EA0221014B196000BF70470CED00E0CB
:1011C0000000FA0538B5002400BF002000901D483B
:1011D000006840F080501B4908600846006800F035
:1011E0008050009000BF00BF012017490864FFF73E
:1011F00009FF044607E0FFF705FF001BB0F57A7F03
:1012000001D9032038BD1148406800F48030B0F5A2
:10121000803FF0D101200C494864FFF7F3FE0446FB
:1012200007E0FFF7EFFE001BB0F57A7F01D903203E
:10123000E8E70648406800F40030B0F5003FF0D120
:101240000020DFE74038024000000E4200700040FE
:1012500070B504460D460CB9012070BD58480068B1
:1012600000F00F00A84209D255490D7008460068E9
:1012700000F00F00A84201D00120EEE7207800F036
:10128000020002281DD1207800F00400042805D1B6
:101290004C48006840F4E0504A490860207800F06B
:1012A0000800082805D14748006840F460404549D7
:1012B00008604448006820F0F000A16808434149F4
:1012C0000860207800F00100A8B36068012807D109
:1012D0003C4808380068C0F34040B8B90120BCE77A
:1012E0006068022802D06068032807D135480838B2
:1012F0000068C0F3406048B90120AEE731480838C3
:101300000068C0F3400008B90120A6E72D48006836
:1013100020F00300616808432A490860FFF772FE65
:10132000064609E0FFF76EFE801B41F288318842D5
:1013300002D9032091E707E02248006800F00C0082
:101340006168B0EB810FEDD11D48006800F00F001F
:10135000A84209D91A490D700846006800F00F002C
:10136000A84201D0012078E7207800F0040004288A
:1013700007D11448006820F4E050E168084311499F
:101380000860207800F00800082808D10D4800689F
:1013900020F46040216940EAC1000A49086000F079
:1013A0003FF808490968C1F30311074A515CC84076
:1013B0000649086006480068FFF754FE00204CE725
:1013C000003C024008380240FE440008CC010020E6
:1013D000C40100200148006870470000CC010020D3
:1013E00000B5FFF7F7FF04490968C1F38221034AFA
:1013F000515CC84000BD0000083802400E4500089E
:1014000000B5FFF7E7FF04490968C1F34231034A19
:10141000515CC84000BD0000083802400E4500087D
:101420002DE9F047002400250026A1462548006844
:1014300000F00C0020B1042805D008283AD105E0BE
:10144000DFF8849039E0DFF8849036E01D48001F13
:10145000006800F03F041B48001F006800F4800093
:1014600078B11A481749091F0968C1F38811A0FB10
:1014700001700146224600233846FEF71BFF054651
:101480000EE011480F49091F0968C1F38811A0FB3C
:1014900001700146224600233846FEF70BFF054641
:1014A0000848001F0068C0F30140401C4600B5FB1F
:1014B000F6F902E0DFF8109000BF00BF4846BDE833
:1014C000F0870000083802400024F400001BB70039
:1014D000F8B504460CB90120F8BD207800F00100F1
:1014E000002874D0F948006800F00C0004280DD0E2
:1014F000F648006800F00C00082813D1F348001FDC
:10150000006800F48000B0F5800F0BD1EF48083878
:101510000068C0F34040002859D06068002856D1C8
:101520000120D9E700BF6068B0F5803F08D1E748E7
:101530000838006840F48030E449083908601EE04B
:101540006068B0F5A02F0DD1E0480838006840F47D
:101550008020DE49083908600846006840F4803081
:1015600008600CE0D9480838006820F48030D7497A
:10157000083908600846006820F48020086000BF31
:10158000606890B1FFF73EFD054606E0FFF73AFDC3
:10159000401B642801D903209EE7CC480838006826
:1015A000C0F340400028F1D011E0FFF72BFD0546C5
:1015B00006E0FFF727FD401B642801D903208BE7D5
:1015C000C24808380068C0F340400028F1D12078B4
:1015D00000F0020002285FD1BC48006800F00C0057
:1015E00058B1BA48006800F00C0008281CD1B74870
:1015F000001F006800F48000B0B9B44808380068E3
:10160000C0F3400020B1E068012801D0012063E769
:10161000AE480838006820F0F800216940EAC100AF
:10162000AA490839086037E0E06800B30120A849FA
:101630000860FFF7E7FC054606E0FFF7E3FC401B08
:10164000022801D9032047E7A04808380068C0F302
:1016500040000028F1D09D480838006820F0F800CC
:10166000216940EAC10099490839086014E0002066
:1016700097490860FFF7C6FC054606E0FFF7C2FC85
:10168000401B022801D9032026E79048083800684B
:10169000C0F340000028F1D1207800F008000828AD
:1016A0002CD16069A8B101208A490860FFF7AAFC23
:1016B000054606E0FFF7A6FC401B022801D90320DF
:1016C0000AE782486C300068C0F340000028F1D07F
:1016D00014E000207F490860FFF794FC054606E00F
:1016E000FFF790FC401B022801D90320F4E677485D
:1016F0006C300068C0F340000028F1D1207800F081
:101700000400042870D1002770483830006800F0C9
:10171000805090B900BF002000906C4838300068BD
:1017200040F080506949383108600846006800F090
:101730008050009000BF00BF01276748006800F498
:101740008070B0B96448006840F4807062490860F5
:10175000FFF758FC054606E0FFF754FC401B022843
:1017600001D90320B8E65C48006800F480700028C6
:10177000F2D000BFA068012808D154486830006842
:1017800040F001005149683108601DE0A06805285B
:101790000DD14E486830006840F004004B49683174
:1017A00008600846006840F0010008600CE0474807
:1017B0006830006820F0010044496831086008463C
:1017C000006820F00400086000BFA068A8B1FFF71F
:1017D00019FC054609E0FFF715FC401B41F2883172
:1017E000884202D9032077E626E03848683000684E
:1017F000C0F340000028EED013E0FFF703FC0546DD
:1018000008E0FFF7FFFB401B41F28831884201D915
:10181000032061E62D4868300068C0F340000028CE
:10182000EFD1012F07D129483830006820F08050CF
:1018300026493831086000BFA069002845D02348F8
:10184000006800F00C0008285DD0A069022845D18E
:1018500000201F490866FFF7D5FB054606E0FFF7A5
:10186000D1FB401B022801D9032035E61748083870
:101870000068C0F340600028F1D1D4E907010843B3
:10188000616A40EA81110122A06AC2EB500041EA7C
:1018900000412C20005D41EA00600C49091F0860EE
:1018A00001200B490866FFF7ADFB054606E0FFF790
:1018B000A9FB401B022801D903200DE60348083884
:1018C0000068C0F340600028F1D049E008380240C9
:1018D00000004742800E474200700040002021492E
:1018E0000866FFF78FFB054606E0FFF78BFB401B02
:1018F000022801D90320EFE51B480068C0F34060CF
:101900000028F2D12CE0A069012800D1E4E51648B6
:10191000001D0668A069012820D006F48001E06956
:1019200081421BD106F03F01206A814216D147F661
:10193000C0703040616AB0EB811F0FD106F44031B6
:101940000122A06AC2EB5000B1EB004F06D106F0B5
:1019500070612C20005DB1EB006F01D00120BBE570
:101960000020B9E5000047420038024070B5044647
:101970002546681EB0F1807F01D301200FE0681E6C
:101980004FF0E02148610F214FF0FF3002F018F8CE
:1019900000204FF0E021886107200861002070BD21
:1019A0007047704730B502460B4600BF92F83C00C6
:1019B000012801D1022030BD012082F83C0000BF87
:1019C000022082F83D00106844681068816824F0A5
:1019D00070041868044310684460184D1068A842E9
:1019E0001BD01068B0F1804F17D0154D1068A84279
:1019F00013D0144D1068A8420FD0134D1068A842A0
:101A00000BD0124D1068A84207D0114D1068A842A3
:101A100003D0104D1068A84205D121F0800158680C
:101A2000014310688160012082F83D0000BF002062
:101A300082F83C0000BF00BFBDE70000000001408D
:101A40000004004000080040000C00400004014079
:101A5000004001400018004010B504460CB90120B8
:101A600010BD94F83D0028B9002084F83C002046C1
:101A700000F026F8022084F83D00211D206800F0C7
:101A800019FE012084F8460000BF84F83E000121C1
:101A90003F200155402001554120015500BF00BFA6
:101AA000012084F84200432001554420015545207F
:101AB000015500BF012084F83D000020D0E7000060
:101AC00038B504462068B0F1804F17D100BF002020
:101AD00000900B48006840F0010009490860084682
:101AE000006800F00100009000BF00BF0022114616
:101AF0001C20FFF715FB1C20FFF7FEFA38BD000085
:101B0000403802402DE9F04104460D46002700BF51
:101B100094F83C00012802D10220BDE8F0810120A8
:101B200084F83C0000BF022084F83D0020688668ED
:101B300026F0770626F47F462068866028685028BD
:101B400033D00CDC202850D004DC00284BD01028E7
:101B500051D149E0302849D040284CD139E06028A3
:101B60002DD0702807D0B0F5805F03D0B0F5005FAE
:101B700041D10DE041E0D5E902136A68206800F028
:101B800009FE2068866846F077062068866034E0A3
:101B9000D5E902136A68206800F0FCFD20688068BF
:101BA00040F480402168886027E0EA68696820681E
:101BB00001F025FC5021206801F018FC1DE0EA68C6
:101BC0006968206801F02EFC6021206801F00EFC9D
:101BD00013E0EA686968206801F011FC4021206880
:101BE00001F004FC09E000BF00BF00BF29682068C5
:101BF00001F0FCFB01E0012700BF00BF012084F8D9
:101C00003D0000BF002084F83C0000BF384684E758
:101C1000704770B504462068C5682068066906F0FC
:101C20000200022819D105F00200022815D1401F38
:101C300021680861012020772068806900F0030096
:101C400018B12046FFF7E4FF05E0204600F097F8C2
:101C5000204600F095F80020207706F004000428C4
:101C600019D105F00400042815D1C043216808618A
:101C7000022020772068806900F4407018B1204667
:101C8000FFF7C6FF05E0204600F079F8204600F097
:101C900077F80020207706F00800082819D105F011
:101CA0000800082815D1C043216808610420207766
:101CB0002068C06900F0030018B12046FFF7A8FFB4
:101CC00005E0204600F05BF8204600F059F80020BF
:101CD000207706F01000102819D105F01000102808
:101CE00015D1C04321680861082020772068C069A9
:101CF00000F4407018B12046FFF78AFF05E0204647
:101D000000F03DF8204600F03BF80020207706F078
:101D1000010048B105F0010030B16FF00100216809
:101D20000861204600F02EF806F08000802809D1D6
:101D300005F08000802805D1C04321680861204655
:101D4000FFF72EFE06F04000402809D105F04000C4
:101D5000402805D1C04321680861204600F02CF8D6
:101D600006F02000202809D105F02000202805D108
:101D7000C043216808612046FFF713FE70BD70471D
:101D8000704700000168B1F1804F10D1084909681F
:101D9000491C074A11601146096841F68B029142BD
:101DA00005D30021024A11600121024A11607047E7
:101DB000280000202C0000207047F8B504460D468E
:101DC000164694F8420020282DD105B10EB9012005
:101DD000F8BD01202063002060633246294620467A
:101DE00000F0E4FC0746206B012819D100BF002059
:101DF000009020680068009020684068009000BF54
:101E000000BF00BF00BF21680C3151E8001F41F046
:101E1000100021680C3141E80002002AF3D100E0F3
:101E200001273846D4E70220D2E7000070B5044607
:101E30000D465049206888420FD14F482946D0F8B6
:101E4000082200F5827090474B48B0F8042200F554
:101E500082712046FFF7B1FF8AE048492068884236
:101E60000FD147482946D0F8082200F582709047E4
:101E70004348B0F8042200F582712046FFF79DFF29
:101E800076E04049206888420FD13F482946D0F883
:101E9000082200F5827090473B48B0F8042200F514
:101EA00082712046FFF789FF62E038492068884246
:101EB0000FD137482946D0F8082200F582709047A4
:101EC0003348B0F8042200F582712046FFF775FF11
:101ED0004EE03049206888420FD12F482946D0F87B
:101EE000082200F5827090472B48B0F8042200F5D4
:101EF00082712046FFF761FF3AE028492068884256
:101F00000FD127482946D0F8082200F58270904763
:101F10002348B0F8042200F582712046FFF74DFFF8
:101F200026E02049206888420FD11F482946D0F872
:101F3000082200F5827090471B48B0F8042200F593
:101F400082712046FFF739FF12E018492068884265
:101F50000ED117482946D0F8082200F58270904724
:101F60001348B0F8042200F582712046FFF725FFE0
:101F700070BD000000100140F40400200044004047
:101F800000070020004800400C090020004C0040E1
:101F9000180B002000500040240D002000140140C8
:101FA000300F0020007800403C110020007C0040F1
:101FB00048130020704700002DE9F84F04462068C0
:101FC00005682068C668206847694FF00009CA465E
:101FD00005F00F09B9F1000F0AD105F0200038B162
:101FE00006F0200020B1204601F06EFBBDE8F88F1E
:101FF000B9F1000F7CD007F0010018B906F4907019
:10200000002875D005F0010030B106F4807018B1D9
:10201000606C40F00100606405F0040030B107F02E
:10202000010018B1606C40F00200606405F002002D
:1020300030B107F0010018B1606C40F0040060643A
:1020400005F0080048B106F0200010B907F00100C3
:1020500018B1606C40F008006064606C002846D0E5
:1020600005F0200028B106F0200010B1204601F054
:102070002BFB20684069C0F3801A606C00F00800F8
:1020800010B9BAF1000F2DD0204601F0DDFB206819
:10209000406900F04000402820D100BF00BF216807
:1020A000143151E8001F21F040002168143141E84B
:1020B0000002002AF3D100BFE06B50B17F48E16B12
:1020C0000865E06BFEF77DFC88B1E06B016D884729
:1020D0000DE02046FFF76EFF09E009E02046FFF71C
:1020E00069FF04E02046FFF765FF002060647DE79C
:1020F000206B012878D105F01000002874D006F07C
:1021000010000028FAD000BF00200090206800686E
:10211000009020684068009000BF00BF20684069C0
:1021200000F04000402870D1E06B006840681FFA62
:1021300080F8B8F1000F58D0A08D404555DDA4F8C7
:102140002E80E06BC069B0F5807F43D000BF00BF38
:1021500021680C3151E8001F21F4807021680C3196
:1021600041E80002002AF3D100BF00BF00BF216890
:10217000143151E8001F21F001002168143141E8B9
:102180000002002AF3D100BF00BF00BF2168143154
:1021900051E8001F21F040002168143141E800029D
:1021A000002AF3D100BF202084F8420000202063E1
:1021B00000BF00BF21680C3151E8001F21F0100062
:1021C00021680C3141E80002002AF3D100BFE06B26
:1021D000FEF7A1FB02206063A08DE28D801A81B220
:1021E0002046FFF723FE0EE052E0A08D40450AD1C5
:1021F000E06BC069B0F5807F05D102206063A18DDE
:102200002046FFF713FEF1E6FFE7A08DE18D401AAF
:102210001FFA80F8E08DD0B3B8F1000F37D000BFBF
:1022200000BF21680C3151E8001F21F49070216833
:102230000C3141E80002002AF3D100BF00BF00BF0B
:102240002168143151E8001F21F001002168143188
:1022500041E80002002AF3D100BF202084F84200A8
:102260000020206300BF00BF21680C3151E8001F2F
:1022700021F0100021680C3141E80002002AF3D15E
:1022800000BF0220606341462046FFF7CFFDADE668
:1022900005F0800030B106F0800018B1204601F052
:1022A00091FAA3E605F0400030B106F0400018B105
:1022B000204601F06CFB99E600BF97E6AF390008B5
:1022C00010B504460CB9012010BDA06900B100E0B2
:1022D00000BF94F8410028B9002084F8400020464F
:1022E00000F02AF8242084F841002068C06820F417
:1022F00000502168C860204601F0D0F820680069CD
:1023000020F49040216808612068406920F02A008C
:10231000216848612068C06840F400502168C860A6
:1023200000206064202084F8410084F842000020EE
:10233000606300BFC8E7000010B586B004461421F2
:1023400001A8FEF74DF83D492068884273D100BFCF
:10235000002000903A48006840F400303849086096
:102360000846006800F40030009000BF00BF00BFC6
:102370000020009032481038006840F008003049D2
:10238000103908600846006800F00800009000BF9F
:1023900000BF6020019002200290002003900320E3
:1023A00004900720059001A92648FEF713FD264852
:1023B000264908604FF00060486000212348816092
:1023C000C1604FF480610161002141618161C1619F
:1023D00001624162FEF72AFC08B1FEF7DCF800BF9B
:1023E0001A48E063846300BF174818301849086032
:1023F0004FF0006048604021154881600021C160B5
:102400004FF480610161002141618161C16101621C
:102410004162FEF70BFC08B1FEF7BDF800BF0C48A7
:10242000A063846300BF002211462620FEF778FED9
:102430002620FEF761FE06B010BD000000440040FB
:1024400040380240000C0240886002401404002022
:102450007404002070477047704700BFFEE700001B
:1024600010B50B480B49086010204860002109484E
:102470008160C16001614161017641768176C176FA
:1024800001774177FEF71AF908B1FEF784F810BD1D
:10249000006400405C03002008B500BF00200090ED
:1024A0000E48006840F400100C49086008460068B7
:1024B00000F40010009000BF00BF00221146102061
:1024C000FEF72EFE1020FEF717FE00221146112007
:1024D000FEF726FE1120FEF70FFE08BD3038024041
:1024E00000B587B0142102A8FDF77AFF00BF0020D5
:1024F00001903648006840F0010034490860084601
:10250000006800F00100019000BF00BF00BF002084
:1025100001900846006840F008000860084600681E
:1025200000F00800019000BF00BF00BF0020019034
:102530000846006840F0800008600846006800F027
:102540008000019000BF00BF00BF0020019008463E
:10255000006840F0400008600846006800F0400055
:10256000019000BF00BF012204211948FEF744FD7D
:10257000002238211648FEF73FFD002202211548AF
:10258000FEF73AFD04200290012003900490002001
:10259000059002A90E48FEF71DFC3820029001208C
:1025A000039000200490059002A90948FEF712FC50
:1025B000022002900120039000200490059002A9BF
:1025C0000448FEF707FC07B000BD000030380240A9
:1025D000001C02400018024000B587B000200390A4
:1025E000049005900690019002904FF080401449AD
:1025F00008605920486000211148816040F2E731AD
:10260000C160002101618161FFF726FA08B1FDF781
:10261000C2FF4FF48050039003A90948FFF772FAF4
:1026200008B1FDF7B8FF00200190029001A904480D
:10263000FFF7B8F908B1FDF7AEFF07B000BD000025
:102640008403002010B50B480B4908604FF4E130BB
:102650004860002108488160C16001610C2141612E
:1026600000218161C161FFF72BFE08B1FDF793FFE7
:1026700010BD000000440040CC03002000BFFEE776
:1026800000BFFEE77047704710B5FEF7C1FC10BDF4
:102690000348006840F4700001490860704700007A
:1026A00088ED00E010B50248FFF7B3FA10BD000056
:1026B0008403002010B502682B4B98420ED0B0F175
:1026C000804F0BD0294B984208D0294B984205D017
:1026D000284B984202D0284B984203D122F0700236
:1026E0004B681A43204B984220D0B0F1804F1DD048
:1026F0001E4B98421AD01E4B984217D01D4B984241
:1027000014D01D4B984211D01C4B98420ED01C4B3C
:1027100098420BD01B4B984208D01B4B984205D0D7
:102720001A4B984202D01A4B984203D122F44072BD
:10273000CB681A4322F080034C6943EA04028B6899
:10274000C3620B688362084B984202D00A4B9842DE
:1027500001D10B690363036843F0040303600123A1
:102760004361026010BD0000000001400004004011
:1027700000080040000C00400004014000400140FF
:10278000004401400048014000180040001C004087
:102790000020004030B50C46816821F47F4142EAB8
:1027A000032525432943816030BD000077B581B002
:1027B000044615460298A062A58500206064222088
:1027C00084F842002C48E16BC8632C48E16B086434
:1027D0002B48E16BC8640020E16B086502AE3268EB
:1027E0002368191D2B46E06BFEF796FA38B11020CE
:1027F0006064202084F84200012004B070BD00BF56
:1028000000200090206800680090206840680090D8
:1028100000BF00BF206970B100BF00BF21680C314C
:1028200051E8001F41F4807021680C3141E800023A
:10283000002AF3D100BF00BF00BF2168143151E866
:10284000001F41F001002168143141E80002002A14
:10285000F3D100BF00BF00BF2168143151E8001F51
:1028600041F040002168143141E80002002AF3D110
:1028700000BF0020C1E70000DB3800082538000851
:102880004D34000810B50248FFF796FB10BD00005C
:10289000CC03002000BFFEE710B5044622461021FD
:1028A0000148FEF7A9FB10BD001C024010B504460C
:1028B000224620210148FEF79FFB10BD001C02406C
:1028C00010B50446224604210148FEF795FB10BDD1
:1028D000001C024010B50446224608210148FEF7BC
:1028E0008BFB10BD001C02400246164B9A4228D1B9
:1028F0000C2925D2DFE801F02406080B0E1113166F
:10290000191C1E2110481BE00F48801C18E00E48BF
:10291000001D15E00C48801D12E00C4810E00B482B
:10292000801C0DE00948001D0AE00848801D07E0F2
:10293000074805E00648801C02E00548001D00BF6E
:1029400000BF70475C030020E8010020E001002088
:10295000F001002000B593B0302107A8FDF740FD3D
:10296000142102A8FDF73CFD00BF0020019026487D
:10297000006840F08050244908600846006800F074
:102980008050019000BF00BF00BF002001901F4891
:10299000006840F440401D4908600846006800F4A3
:1029A0004040019000BF00BF012007900004089044
:1029B00002200D9041050E9106210F91B421109136
:1029C000022111910421129107A8FEF781FD08B19F
:1029D000FDF7E1FDFEF7F6FB08B1FDF7DCFD0F208A
:1029E000029002200390002004904FF4A050059024
:1029F0004FF480500690052102A8FEF729FC08B18B
:102A0000FDF7C9FD13B000BD403802400070004022
:102A100010B504462068A0F2012028B904F11C0179
:102A2000024800F055FA00BF00BF10BD640200204C
:102A3000F0B58BB007460C4615461E4604F0020062
:102A400080B1E8040190E80004F0030140EA41008D
:102A50000290F0040390F00004F0030140EA41000A
:102A6000049009E068010190A007400F02907001F6
:102A70000390A007400F0490E0100690C4F380007C
:102A800005900120099000200790012008900E2059
:102A90000A9001A93846FDF781FD0BB0F0BD00009A
:102AA00070B52DED048B04460D4621462F4800F0ED
:102AB0003BFB2E4800F0F8FA30B1012817D002286D
:102AC00028D003284CD138E0284800F0F1FAB0EEC5
:102AD000409AF0EE609A51EC190B01F00BFC08EEF5
:102AE000100AB0EE480A224800F0A7FF39E01F485C
:102AF00000F0DEFAB0EE409AF0EE609A51EC190B5D
:102B000001F0F8FB08EE100AB0EE480A184800F091
:102B100091FF26E0154800F0CBFAB0EE409AF0EEB7
:102B2000609A51EC190B01F0E5FB08EE100AB0EECB
:102B3000480A0F4800F078FF13E00C4800F0B8FA9C
:102B4000B0EE409AF0EE609A51EC190B01F0D2FB16
:102B500008EE100AB0EE480A054800F068FF00E0F1
:102B600000BF00BFBDEC048B70BD00001C02002044
:102B7000B402002010B52DED028B0446B0EE408A61
:102B8000F0EE608A04F00100FFF790FEC4F340000D
:102B9000FFF782FEC4F38000FFF79CFEC4F3C00081
:102BA000FFF78EFE012121EA141000F0D1F8012177
:102BB00021EA541000F0C0F8012121EA941000F03D
:102BC00069F8012121EAD41000F06EF8012121EA10
:102BD000142000F073F8012121EA542000F078F865
:102BE000012121EA942000F07DF8012121EAD4207E
:102BF00000F082F8012121EA143000F087F8012169
:102C000021EA543000F08CF8BDEC028B10BD0000BE
:102C100070B504460D462046FDF74EFE206840691B
:102C200040F00200216848612068406940F01000CF
:102C3000216848611349206888420FD11248046016
:102C4000456000231A4619462046FFF7F1FE00238F
:102C50001A460C212046FFF7EBFE12E00B492068D4
:102C600088420ED10A480460456000231A4670214C
:102C70002046FFF7DDFE00231A467C212046FFF7A1
:102C8000D7FE70BD00640040D00100200068004005
:102C9000D801002010B50446224602210148FEF763
:102CA000ABF910BD0018024010B5044622460421BD
:102CB0000148FEF7A1F910BD0018024010B5044606
:102CC000224608210148FEF797F910BD001802407E
:102CD00010B50446224610210148FEF78DF910BDBB
:102CE0000018024010B50446224620210148FEF794
:102CF00083F910BD0018024010B504462246402159
:102D00000148FEF779F910BD0018024010B50446DD
:102D1000224680210148FEF76FF910BD00180240DD
:102D200010B5044622464FF480710248FEF764F95C
:102D300010BD00000018024010B5044622464FF4B2
:102D400080410248FEF758F910BD0000001402400F
:102D500010B5044622464FF400610248FEF74CF9D4
:102D600010BD00000010024070B504460D46164626
:102D70004749206888420DD146480460C0F808528F
:102D8000A0F80462B0F8042200F582712046FFF733
:102D900014F87CE04049206888420DD13F48046027
:102DA000C0F80852A0F80462B0F8042200F582715D
:102DB0002046FFF702F86AE03949206888420DD1C1
:102DC00038480460C0F80852A0F80462B0F8042241
:102DD00000F582712046FEF7F0FF58E03249206886
:102DE00088420DD131480460C0F80852A0F804624E
:102DF000B0F8042200F582712046FEF7DEFF46E0BF
:102E00002B49206888420DD12A480460C0F8085236
:102E1000A0F80462B0F8042200F582712046FEF7A3
:102E2000CCFF34E02449206888420DD12348046057
:102E3000C0F80852A0F80462B0F8042200F58271CC
:102E40002046FEF7BAFF22E01D49206888420DD1D6
:102E50001C480460C0F80852A0F80462B0F80422CC
:102E600000F582712046FEF7A8FF10E016492068A1
:102E700088420CD115480460C0F80852A0F80462DA
:102E8000B0F8042200F582712046FEF796FF70BD6F
:102E900000100140F404002000440040000700201E
:102EA000004800400C090020004C0040180B002096
:102EB00000500040240D002000140140300F00207D
:102EC000007800403C110020007C004048130020A6
:102ED00030B550F8B83F5B1C0360038903824B7820
:102EE0000C7843EA04230381CB788C7843EA0423EB
:102EF0001BB243814B790C7943EA04231BB28381D3
:102F00008B79C3810389048AB8381B1B1AB212F566
:102F1000805F05DAD0F8D0305B1CC0F8D03007E015
:102F2000B2F5805F04DDD0F8D0305B1EC0F8D03041
:102F3000AC30838A0589446A04FB0533036290ED53
:102F4000080AF8EEC00A038900EE103AB8EE400A0B
:102F500080EE801AB0EE000A21EE000ADFED130ABF
:102F600020EE200AD0ED000A80EE201A80ED0B1A28
:102F7000B0F9163000EE103AB8EEC00ADFED0C0AD8
:102F800020EE200AD0ED000A80EE201A80ED0C1A07
:102F9000B0F9183000EE103AB8EEC00A80ED0D0A14
:102FA000837E80F83830AC3830BD0000DB0F4940FC
:102FB0005077D63DF0B504460D4616461F460F49DC
:102FC0002868884203D10E48C4F8A00006E00D49E5
:102FD0002868884202D10C48C4F8A00084F8A46094
:102FE00084F8E57084ED2B0AC4ED2C0A314628469E
:102FF000FFF77AFCC4F8A800F0BD000000640040B0
:10300000D001002000680040D801002010B504461F
:10301000204600F015FD0446503000F011FD9FEDF4
:103020001F0A00F15C0480ED170A9FED1D0A80ED78
:10303000180A4FF400502081400060810020E060B9
:103040002061A082E08220836083A083206260628E
:1030500084F828009FED130A84ED0B0A9FED110AF6
:1030600084ED0C0A9FED0F0A84ED0D0A84F83800F8
:10307000032084F839009FED0B0A84ED0F0A9FEDC1
:10308000090A84ED100A9FED070A84ED110A9FEDED
:10309000050A84ED120AAC3C204610BD2CA09941D3
:1030A0000000804600000000014691F94100704791
:1030B00010B5044694ED110A10EE101A084601F0FE
:1030C0009FF941EC100B10BD70B59AB00446002575
:1030D00006E0206800F58270405D01A948556D1C2E
:1030E000206800F58270405D3D28F2D1002001A9E2
:1030F000485500260FE06422A06802FB060101A8E3
:10310000FDF796F930B970B284F84100681CC0B27E
:103110001AB070BD761C2079B042ECDCFF2084F838
:103120004100681CC0B2F3E770B504460E46204665
:10313000FFF7CAFF05462946204600F001F870BD9A
:103140002DE9F0412DED048B04460E4600270120A9
:1031500008EE100A9FED300A84ED110A94F941003F
:10316000401C18B9BDEC048BBDE8F081206800F567
:103170008270805D2D2804D14FF0FF3008EE100AD8
:10318000761C354619E0206800F58270405D2E28D7
:1031900001D12F4610E0206800F58270405D303884
:1031A00000EE100AB8EEC00AD4ED110AB2EE041A0D
:1031B00000EE810A84ED110A6D1C206800F5827012
:1031C000405D232805D0206800F58270405D00280E
:1031D000D9D1B7B1F2EE048AE81B00EE100AB8EEBE
:1031E000C00AF7EE000A30EE609AF0EE490AB0EE3F
:1031F000680A00F081FCD4ED110A80EE801A84ED9B
:10320000111A94ED110AF8EEC80A20EE200A84ED96
:10321000110A00BFA6E7000000000000F0B5DDE9DC
:1032200005541F4F0E68BE4202D11E4E06602FE0AD
:103230001D4F0E68BE4202D11C4E066028E01C4F96
:103240000E68BE4202D11B4E066021E01A4F0E6886
:10325000BE4202D1194E06601AE0194F0E68BE42F6
:1032600002D1184E066013E0174F0E68BE4202D11D
:10327000164E06600CE0164F0E68BE4202D1154E87
:10328000066005E0144F0E68BE4201D1134E066081
:10329000027183600573447306683471F0BD0000E9
:1032A00000100140F404002000440040000700200A
:1032B000004800400C090020004C0040180B002082
:1032C00000500040240D002000140140300F002069
:1032D000007800403C110020007C00404813002092
:1032E00030B50468246824F4802405682C600468E0
:1032F00063608468402C04D10468A2600468E160C3
:1033000003E00468A1600468E26030BD014600206B
:103310008A6A8B69CBB932B1012A0DD0022A03D057
:10332000032A10D10EE000BFCB6A03F08073B3F123
:10333000807F00D1012007E0CB6AB3F1C07F00D1CC
:10334000012001E000E000BF34E08B69B3F5005FCD
:103350001AD132B1012A07D0022A03D0032A11D18F
:103360000AE000BF01200EE0CB6A03F08073B3F1E6
:10337000807F00D1012006E0CB6AB3F1C07F00D18D
:10338000012000E000BF15E032B1012A05D0022A79
:1033900004D0032A0CD103E000BF00BF012008E0E5
:1033A000CB6A03F08073B3F1807F00D1012000E08D
:1033B00000BF00BF7047000001460878103818238E
:1033C000B0FBF3F20848805CC865032A05D9086899
:1033D0006FF30900001D886503E008686FF30900BA
:1033E0008865886D70470000F64400080A468168C9
:1033F00021F0700142F0070319438160704730B536
:103400000B461446026A056A25F0010505628169CA
:1034100021F0F00141EA041122F00A021A4381610D
:10342000026230BD30B50B461446026A056A25F0CB
:1034300010050562816921F4704141EA043122F0EE
:10344000A00242EA03128161026230BD70B50646F5
:103450000025B46B20684069C0F3C01594F84100A2
:10346000212805D125B10020E084204600F022FA71
:1034700020684069C0F3801594F84200222805D1E5
:1034800025B10020E085204600F0DEF9606C40F0B8
:10349000100060642046FEF78DFD70BD2DE9F84FE9
:1034A00004462068006920F44050E1680843216820
:1034B00008612169A068084361690843E16908431C
:1034C00000902068C06849F20C6188430099084365
:1034D0002168C8602068406920F44070A1690843F1
:1034E0002168486176492068884203D07549206880
:1034F000884203D1FDF784FF814602E0FDF770FFAB
:103500008146E069B0F5004F6CD102206168A0FBF4
:10351000015003461920A9FB007001462A4638468F
:10352000FCF7C8FE6421B0FBF1F04FEA001A02205C
:103530006168A0FB01510B461920A9FB00712A46C6
:103540003846FCF7B7FE834602206168A0FB0150B5
:1035500003461920A9FB00712A463846FCF7AAFE4B
:103560006421B0FBF1F000EBC00101EB0010ABEB0C
:103570008000322101EBC0006421B0FBF1F000F0CB
:10358000F8000AEB400A02206168A0FB01500346E4
:103590001920A9FB007001462A463846FCF78AFE2E
:1035A000834602206168A0FB015003461920A9FB55
:1035B00000712A463846FCF77DFE6421B0FBF1F02D
:1035C00000EBC00101EB0010ABEB8000322101EBFE
:1035D000C0006421B0FBF1F000F007005044216806
:1035E00088606AE004206168A0FB0150034619204E
:1035F000A9FB007001462A463846FCF75BFE82466E
:1036000004206168A0FB015003461920A9FB00704B
:1036100001462A463846FCF74DFE6421B0FBF1F026
:1036200000EBC00101EB0010AAEB8000322101EB9E
:1036300000106421B0FBF1F000F0F00A0420616892
:10364000A0FB017003461920A9FB00513A46284609
:10365000FCF730FE6421B0FBF1F00AEB001A042005
:103660006168A0FB01510B461920A9FB00712A4695
:103670003846FCF71FFE834604206168A0FB01501A
:1036800003461920A9FB007001462A463846FCF77C
:1036900011FE6421B0FBF1F000EBC00101EB001062
:1036A000ABEB8000322101EB00106421B0FBF1F0A4
:1036B00000F00F00504421688860BDE8F88F0000DA
:1036C0000010014000140140F8B504460025002612
:1036D00094F84200222873D1A068B0F5805F0BD126
:1036E000206948B9A66A20684068C0F308003080A5
:1036F000A06A801CA06214E0A56AA068B0F5805F93
:1037000003D0A06828B9206918B9206840682870DB
:1037100004E02068406800F07F002870A06A401C28
:10372000A062E08D401E80B2E085002846D120686E
:10373000C06820F020002168C8602068C06820F4BC
:1037400080702168C8602068406920F0010021680D
:103750004861202084F8420000206063206B01282B
:1037600026D10020206300BF00BF21680C3151E842
:10377000001F21F0100021680C3141E80002002AEE
:10378000F3D100BF2068006800F0100010280AD1B3
:1037900000BF00200090206800680090206840680A
:1037A000009000BF00BFA18D2046FEF73FFB02E066
:1037B0002046FEF74FFE0020F8BD01E00020FBE7A9
:1037C0000220F9E7014691F84100212828D18868B4
:1037D000B0F5805F0BD1086948B90A6A1088C0F358
:1037E00008000B685860086A801C086205E00B6AD4
:1037F000581C086218780B685860C88C401E80B24C
:10380000C88458B90868C06820F080000B68D86088
:103810000868C06840F040000B68D860002070471E
:103820000220FCE770B50546AC6B01206063206B9D
:10383000012805D1A08D41082046FEF7F7FA02E0E5
:103840002046FEF708FE70BD00BF00BF02680C32C4
:1038500052E8002F22F4907102680C3242E8001303
:10386000002BF3D100BF00BF00BF0268143252E842
:10387000002F22F001010268143242E80013002BED
:10388000F3D100BF016B01290ED100BF00BF026858
:103890000C3252E8002F22F0100102680C3242E88C
:1038A0000013002BF3D100BF202180F8421000212B
:1038B0000163704700BF00BF02680C3252E8002F5E
:1038C00022F0C00102680C3242E80013002BF3D151
:1038D00000BF202180F84110704770B50546AC6BE1
:1038E0002868006800F48070002842D1E08500BF9D
:1038F00000BF21680C3151E8001F21F4807021685D
:103900000C3141E80002002AF3D100BF00BF00BF24
:103910002168143151E8001F21F0010021681431A1
:1039200041E80002002AF3D100BF00BF00BF2168B8
:10393000143151E8001F21F040002168143141E8A2
:103940000002002AF3D100BF202084F84200206B3F
:1039500001280ED100BF00BF21680C3151E8001FC3
:1039600021F0100021680C3141E80002002AF3D157
:1039700000BF00206063206B012804D1A18D204688
:10398000FEF754FA02E02046FEF764FD70BD10B564
:1039900004462068C06820F040002168C8602020EC
:1039A00084F841002046FEF757FD002010BD70B599
:1039B0000446A56B0020E8852846FEF7FBFA70BD9B
:1039C00010B5002804DB0A07130E054A135406E05D
:1039D0000A07140E034A00F00F031B1FD45410BD36
:1039E00000E400E018ED00E002480068C0F30220A7
:1039F000704700000CED00E080ED080AC0ED090AF8
:103A000080ED0A1AC0ED0B1A80ED0C2AC0ED0D2ACC
:103A100080ED003AC0ED013A80ED0E4AC0ED0F4A4C
:103A200080ED105A0172704780ED0A0A704780EDF0
:103A30000B0A704780ED090A704780ED080A70474D
:103A40009FED220A80ED030A9FED200A80ED040A13
:103A50009FED1E0A80ED050A9FED1C0A80ED060A07
:103A60009FED1A0A80ED070A9FED180A80ED080AFB
:103A70009FED160A80ED090A9FED140A80ED0A0AEF
:103A80009FED120A80ED0B0A9FED100A80ED0C0AE3
:103A90009FED0E0A80ED0D0A9FED0C0A80ED0E0AD7
:103AA0009FED0A0A80ED0F0A9FED080A80ED100ACB
:103AB0009FED060A80ED110A9FED040A80ED120ABF
:103AC0009FED020A80ED130A70470000000000001D
:103AD0004100080218BF04200A0E18BF40F0010080
:103AE0004FF07F4232EA010108BF40F00200012896
:103AF00008BF05207047000010B510EE100A2DED2C
:103B0000068BB7EE001A10EE901AB0EE418A002232
:103B1000A0F5000CDFEDFE9A4FF00073BCF1FE4FF4
:103B20004FF07F4403EB410C80F0B481BCF1804F37
:103B3000C0F02082F74901449FEDF73AB1F5005FEC
:103B400040F2D48200F58021CB0C03F00F0101EE8E
:103B5000901AC3F307137F3BA0EBC350B8EEE12AE2
:103B600000EE100A1A44DFEDED2AF0EE411A42EEA3
:103B7000221AF0EE613A70EE232A30EE632A12EE3A
:103B8000900A00F500606FF30B0001EE900A73EEEF
:103B9000E13A33EE804AC1EE223A22EE230A10EED9
:103BA000100A00F500606FF30B0000EE100A00EE43
:103BB000612A00EE442A62EE232A70EE221A21EED8
:103BC000A12ADFEDD73A02EE233A23EE023A20EEA5
:103BD000012A22EE811A03EE211A32EE010A10EEBA
:103BE000100A00F500606FF30B0000EE100A72EE91
:103BF000401A31EE812A9FEDCB1A60EE011A9FED3B
:103C0000CA1A20EE011A9FEDC90A02EE001A31EE1F
:103C1000810A10EE100A00F500606FF30B0000EE51
:103C2000100AC34871EEC01A31EE812A784400EBC5
:103C3000C10090ED003AD0ED011A100101EE100A1A
:103C4000F8EEC12A32EE211A31EE001A31EE031AD3
:103C500031EE221A11EE100A00F500606FF30B002E
:103C600009EE100A39EE621A31EE431A31EE400ABB
:103C700030EE610A32EE40AA10EE900A002100F503
:103C800000606FF30B0008EE900A084670EEE8AA99
:103C90004FF0000029EE280A00F00C01F0EEC00AF7
:103CA00010EE900AB0F18B4F0DDD10EE900AB4EBE0
:103CB000400F08D310EE100A4FF08B4262F31E0043
:103CC00008EE900A13E069EE2A0A38EEAA1A4AEEC4
:103CD000010A30EE201A11EE100A00F500606FF3B1
:103CE0000B0008EE900A30EE680A70EE209A0C2065
:103CF0004FF0000038EEA90AB5EEC00AF1EE10FA56
:103D000034BFFEEE000AF6EE000A30EE800ABDEE89
:103D1000C00A10EE100A011100EE101AF8EEC00AE7
:103D200000EE100AB8EEC00A38EEC00A30EE290ADA
:103D3000DFED801A9FED801A00EE211ADFED7F1A69
:103D40007F4900F00F0040EE011A21EE800A79440D
:103D500001EB800191ED001A7A49794401EB800171
:103D6000D1ED001A784901EE801A794401EB800008
:103D7000764990ED000A31EE001AB0EEE00A10EE3E
:103D8000100A884215DA10EE100AB4EB400F10D377
:103D90009FED6F0A30EE800ADFED6E0A20EE200AFA
:103DA00068EE010ABDEC068BBCEEC00A20EE200ACC
:103DB00010BD10EE100A6849884243DA10EE100A6E
:103DC000B4EB400F3ED3BDEEE00A68EE010A10EE00
:103DD000100A00EBD0725110C90501F17E5100EEBE
:103DE000101AA0EB6200C00560EE200A00F17E50C0
:103DF00000EE100A60EE808A18EE900AB4EB400FD5
:103E00000FD10220FCF76FFB00F0BEF910EE101A84
:103E100018EE100ABDEC068B61F31E0000EE100ACE
:103E200010BD18EE900A400011D018EE900AFFF76E
:103E30004FFE042808BF00F0AFF9B0EE680ABDECF1
:103E4000068B10BDF5EEC00AF1EE10FA0FD202207B
:103E5000FCF749FB00F0A0F910EE101A18EE100A5A
:103E6000BDEC068B61F31E0000EE100A10BD0220AF
:103E7000FCF739FB00F088F910EE101AB0EE480A92
:103E800010EE100ABDEC068B61F31E0000EE100A66
:103E900010BD00BFBCF1804F6CD300BF00F1FF43E9
:103EA000B3F1FE4F24D200BFB0EEC00A10EE100AEC
:103EB000C1F3C7537F2B0DDB972BBFF63BAEC3F18E
:103EC00096034FF0010C0CFA03F3A3F1010C1CEA6A
:103ED000010F08D00120FCF706FBBDEC068BBDE806
:103EE000104000F049B90B4218BFBFEE008A21E62E
:103EF00043001CBF4FF08073B3EB400F34D96FF019
:103F00001A02DFED161A20EE210A10EE100A27E041
:103F100000000000001080C0ABAAAA3E0000803D57
:103F20007EE24C3E00B03842D49AB8BB3BAA38423D
:103F3000E8080000FC596337C9FF753A1872313D33
:103F400086080000BA0800002A0800000000FC42B1
:103F50000000FE420000004B000040430000004D06
:103F600010F0004FA0D1E5E5A0F50003B3F1FE4F3E
:103F700021D2DFE503EB4103B3F1007F11D3F5EE6E
:103F8000C00AF1EE10FA05D1430018BFB4EB400FA0
:103F900076D883E701F0004141F0FC5100EE901A21
:103FA0007CE7B3F1807F06D210EE903AA3F50003D0
:103FB00000EE903A72E720F000426FF0FF4C604C48
:103FC00002EB0C03A34210D321F000439C44A44510
:103FD0000BD3B0F17E5F18BF5FEA410C50D0B2F155
:103FE000FF4F98BFB3F1FF4F05D9BDEC068BBDE87D
:103FF000104000F0BDB8B0F1FF4F0FD0C1F3C75271
:104000007F2A09DB972A11DAC2F19602012303FA0B
:1040100002F2531E0B4205D0002208E011F0004FBF
:1040200055D128E00A4218BF012200D1022210F522
:10403000000F13D028B3B0F1004F26D010F1814FFC
:104040004FD04FF0FE42B2EB400F94BF0120002052
:10405000012202EBE171884239D10CE011F0004FEE
:1040600002D0012A38D032E0012A02BF9FED350A82
:10407000BDEC068B10BD9FED340ABDEC068B10BD68
:104080002FE011F0004F0CD121E0B1F1FF4F1ED015
:1040900011F5000F05D011F0004F15D00AB1012A1B
:1040A00008D00220FCF71FFABDEC068BBDE81040DB
:1040B00000F054B80220FCF716FA00F04FF8BDECFF
:1040C000068BB1EE400A10BD0AB1012A04D0B0EE51
:1040D000690ABDEC068B10BDBDEC068B9FED1B0A7B
:1040E00010BDBDEC068BB7EE000A10BD30EE410AE4
:1040F000B5EE001A9FED172A00EE413AB6EE001A0F
:1041000060EE001A00EE431A61EEC11A9FED101A1C
:1041100020EE011A20EE020A9FED0F2A01EE820A1C
:1041200071EE001A11EE900A00F500606FF30B00BB
:1041300009EE100A31EE491A31EE00AA9CE50000A2
:10414000FFFF3F00000080FF0000807F0000008034
:1041500000B0B841D49A38BB3BAAB841DFED030A9E
:10416000B7EE001A81EE200A704700000000000040
:1041700030EE200A70470000DFED020A80EEA00A50
:1041800070470000000000009FED020A20EE000AC8
:1041900070470000000000709FED020A20EE000A48
:1041A000704700000000001000200A4908700870E5
:1041B0004860486008720872C860C86001200861E1
:1041C000086100204861486108760876C861C861C6
:1041D00070470000D404002010B50748002180F883
:1041E000401080F841109FED050A80ED110A044847
:1041F000FEF70CFF10BD00001C02002000000000B4
:10420000640200201CB5FCF70FFFFEF7A3FBFEF7CE
:1042100067F9FEF741F9FEF723F9FEF713FAFEF707
:10422000DBF9FCF7EFFE0446FCF7BCF8DFED240AEF
:104230009FED230A0F20FEF79DFC22492248FEF73E
:10424000E7FC642221492248FEF78EFDAB200621BF
:10425000204B0A46CDE900101D491F48FEF7DEFF3E
:1042600000219FED175ADFED164A9FED154ADFED4D
:10427000143A9FED1A3ADFED1A2A9FED192ADFED65
:10428000101A9FED0F1ADFED0E0A9FED0D0A15486B
:10429000FFF7B2FBDFED140A9FED140A022301229F
:1042A000094910485038FEF785FE07E00221104802
:1042B000FCF798FE4FF4FA70FCF778FDF6E7000083
:1042C00000000000112A00085C030020A12A000859
:1042D000CC030020300000201C0200206F12833A23
:1042E00000401C45B4020020000080462CA09941EB
:1042F0000018024021F00042A2F16052B2F5801F86
:1043000001F0004328BFD2F17F6C0BD95FEA001C9B
:1043100043EAC20242EB507018BF704728BF20F03A
:1043200001007047B2F5801FBCBF184670474FEAC6
:10433000410C1CF5001F02D2084600F0D7B870B53A
:1043400000F009F800000089FFF7F6BF4FF00040C9
:10435000A0F5800070470EF1020E2EF0030E5EF8FD
:10436000046B364205D4012A43EB030515F5001F03
:1043700012D8012841EB010C1CF5001F0CD80ED1FE
:104380004FEAD17C15F5001F0CEB4C0C0CF1020C24
:1043900008BF4CEBD37C04E04FF0080C01E04FEA7F
:1043A000D37C0CEB4C0526FA05F606F00706B6F1B1
:1043B000040C06D20EEB860CBDE870404CF0010CEC
:1043C0006047DFE80CF0090B02024FF000414FF0AC
:1043D0000000A1F5002170BD19461046012851EBDF
:1043E000010418BFD4F5001484BF002001F000417F
:1043F00070BD0808A0F500114FEA310170470000B8
:1044000043004FEAD30C4FEA3C0C43401FBF400728
:104410000CF1605113F0FE4F70471CF0006F03D198
:1044200000200CF0004170470CF0004343EA50704C
:1044300010B540EACC0000F00EF800BF000000927A
:104440004FEA0001FFF7D5BF4FF000414FF00000E9
:10445000A1F5002170470EF1020E2EF0030E5EF85A
:10446000044B244204D44FEA4102B2F17F4F11D8E9
:104470004FEA4003B3F17F4F0CD80ED14FEAD07C06
:10448000B2F17F4F0CEB4C0C0CF1020C08BF4CEB63
:10449000D17C04E04FF0080C01E04FEAD17C0CEB3A
:1044A0004C0324FA03F404F00704B4F1040C06D21C
:1044B0000EEB840CBDE810404CF0010C6047DFE8C7
:1044C0000CF0070802024FF00040A0F5800010BD7C
:1044D0000846420018BFD2F1807288BF00F0004049
:1044E00010BD4FF04070E1EE100A7047FF2141EA25
:1044F000D050C005704700061016000610160000C8
:104500000000000000000102030406070809000083
:104510000000010203040000000000000000000091
:104520000000B33FB2BE7D3A00002E40DFCF5138CD
:1045300000007E40BF51FABA00E0A44019DAC3BAC5
:1045400000E0C840C2ED8AB90040EB40CD1F2CBA54
:10455000001006412AFFFABA00C01541DFCFD1375B
:1045600000D024419A97703A0050334189478E36E3
:1045700000404141E75B9D3800B04E41C00A98B908
:1045800000A05B41558F943A00306841DA92C0BA7E
:104590000040744162B3C63A0000803F00A0853FEE
:1045A00000908B3F00C0913F0030983F00F09E3F4D
:1045B00000F0A53F0050AD3F0000B53F0000BD3FFB
:1045C0000060C53F0020CE3F0040D73F00C0E03F25
:1045D00000C0EA3F0020F53F000000007D36AC3906
:1045E0007D3C3839EBDCF438320A7E39124C2639FE
:1045F0009B6AED39A4EE83397F661E39F6398A3914
:104600002B426539A48211395B991F39C3EECD392C
:10461000DDE7C637A5A22F390000803FC3AA853F3A
:10462000C2958B3FD3C3913FF037983F32F59E3F01
:10463000D7FEA53F3F58AD3FF304B53FA408BD3FAB
:104640002A67C53F8C24CE3FFD44D73FDFCCE03FF7
:10465000C7C0EA3F7D25F53F8046000800000020E6
:104660001C020000E8010008AC4600081C02002003
:104670007C1A00002402000861FBFFFF2DFBFFFFF6
:1046800001155914AE473F8FC2853F45E926F13FDA
:1046900092400363706F0363696F0363646F036722
:0C46A000666F42105201034E24F400002B
:04000005080001AD41
:00000001FF
