:020000040800F2
:10000000680900206902000811370008513400080F
:10001000BD36000889180008993F0008000000005C
:100020000000000000000000000000003B38000855
:10003000AD1A000800000000393800089D3800089B
:10004000830200088302000883020008830200087C
:10005000830200088302000883020008830200086C
:10006000830200088302000883020008830200085C
:10007000F119000883020008FD1900088302000836
:10008000830200088302000883020008A518000804
:100090008D180008991800088302000883020008E0
:1000A000830200088302000883020008830200081C
:1000B000830200088302000883020008830200080C
:1000C00083020008830200088302000883020008FC
:1000D000830200088302000883020008253F00080D
:1000E00083020008830200088302000883020008DC
:1000F00083020008830200088302000883020008CC
:1001000083020008830200088302000883020008BB
:1001100083020008830200088302000883020008AB
:10012000830200088302000883020008830200089B
:10013000830200088302000883020008C91800082F
:10014000B1180008BD1800088302000883020008E7
:10015000830200088302000883020008830200086B
:10016000830200088302000883020008830200085B
:1001700083020008830200088302000800000000D8
:10018000830200088302000883020008830200083B
:10019000830200088302000883020008830200082B
:1001A00000000000000000008302000800F002F8D8
:1001B00000F04AF80AA090E8000C82448344AAF1B7
:1001C0000107DA4501D100F03FF8AFF2090EBAE8B5
:1001D0000F0013F0010F18BFFB1A43F0010318477B
:1001E000F846000018470000103A24BF78C878C1CC
:1001F000FAD8520724BF30C830C144BF04680C602D
:10020000704700000023002400250026103A28BF74
:1002100078C1FBD8520728BF30C148BF0B60704778
:100220001FB504F073FA00F06DF9040000200021FE
:1002300004F064F8401C60600020002104F048F8DD
:10024000E0601FBD10B510BD00F02EF91146FFF79C
:10025000E7FF04F02BF800F0FFF903B4FFF7F2FF1B
:1002600003BC00F0C7FC000009488047094800476C
:10027000FEE7FEE7FEE7FEE7FEE7FEE7FEE7FEE756
:10028000FEE7FEE704480549054A064B70470000B3
:100290003D390008AD01000868030020680900200E
:1002A000680500206805002053EA020C00F0698010
:1002B0002DE9F04B4FF00006002B1FBFB3FA83F57A
:1002C00003FA05F424FA05F65E4012BF1643B2FAAB
:1002D00082F502FA05F4C5F120051EBF22FA05FCDD
:1002E00044EA0C04203556EA044C4FEA144418BF83
:1002F000641C4FF000084FF00009904271EB030CB2
:1003000039D3002919BFB1FA81F701FA07F6B0FA1B
:1003100080F700FA07F6C7F120071EBF20FA07FC96
:1003200046EA0C062037B6FBF4FCA7EB0507103FA6
:1003300007F01F0BCBF120060CFA0BFB2CFA06F68C
:1003400044BFB3460026202FA4BF5E464FF0000BEB
:100350005BEA060C08BF4FF0010B19EB0B09ABFB76
:10036000027C48EB0608C01B06FB02CC0BFB03CC4F
:1003700071EB0C01C1E70B46024641464846BDE819
:10038000F08B13B54FF000004FF00001AFF3008089
:10039000BDE81C4070474FF0000200B5134694467C
:1003A0009646203922BFA0E80C50A0E80C50B1F1CD
:1003B0002001BFF4F7AF090728BFA0E80C5048BFE1
:1003C0000CC05DF804EB890028BF40F8042B08BF7F
:1003D000704748BF20F8022B11F0804F18BF00F87B
:1003E000012B70477047704770477CB50546002366
:1003F0006846CDE9003300F023F86946284603F04B
:10040000F3FE7CBD0FB4002300B589B00CA90091A8
:100410000B99CB60214B7B440693214B7B44079384
:1004200004236FF00042CDE901321E4A7A446B4644
:1004300008920246002004F0D6F909B05DF814FBDA
:1004400070B506464FF0FF3015460C46324686B072
:100450000091CDE9010169460020049004A8FFF74E
:10046000D1FF02460498211825B108B1084600E0E2
:1004700020462860049800280DD0002A02DD00984C
:10048000884208D03246081B69460094CDE9010431
:1004900004A8FFF7B7FF06B070BD00001B01000005
:1004A00033010000F3000000754600F0DFF8AE46AF
:1004B00005006946534620F00700854618B020B570
:1004C000FFF7E0FEBDE820404FF000064FF00007C8
:1004D0004FF000084FF0000B21F00701AC46ACE8EC
:1004E000C009ACE8C009ACE8C009ACE8C0098D4659
:1004F0007047000010B500F005F8001D10BD00BFEA
:10050000FD3D0000004870472403002010B500F0B6
:10051000B1F8006810BD10B5044600F0ABF80460F7
:1005200010BD10B50446FFF7E5FF0068005D00F060
:10053000010010BD426842B1016811F8013B23B1CE
:10054000521EC0E90012184670470121C160881E82
:10055000704742685AB1C368016843B983688B42E7
:1005600005D0491E521CC0E90012002070474FF010
:10057000FF3070472DE9F047814616468AB035486E
:1005800078440DC88DE80D0032487844801C03ACD7
:100590000DC884E80D0041F69B300844372190FBDC
:1005A000F1F290FBF1F5A5F1800501FB12041B3C73
:1005B00002D56442012000E00020DFF898A08046C8
:1005C0000027FA44AAF1BE0A0EE0E0070AD032463C
:1005D000684607EB470101230AEB810100F0D4FFD5
:1005E0008DE8070064107F1C002CEED1194F7F446A
:1005F000AE3F19E0E80715D007EB04100DF1180A1B
:1006000090E80E008AE80E00C068F04201D1981907
:1006100008903246012306A903A800F0B5FF03ABFA
:1006200083E807006D10641C002DE3D14FF0010337
:1006300032466946B8F1000F03A802D000F07AFFF5
:1006400001E000F0A1FFC9E90001C9F808200AB0E3
:10065000BDE8F0873C43000010B50446AFF30080CE
:100660002046BDE81040FFF7F8BD00000048704785
:100670000403002000487047040300202DE9FF4FC9
:1006800006468BB00878FF2806D0491C2D2805D0D7
:1006900000244FF0000908E000200CE00124F8E7F6
:1006A00009EB8903491C00EB43090878FF28F7D1BF
:1006B00014B1C9F100008146107800252C46AA46E5
:1006C00029462D2801D02B2804D1521C2D2813D0C7
:1006D000002082468B461078FF280FD04FF0000C88
:1006E0000A21521CA5FB017804FB018105FB0C11BA
:1006F000C5194BEB0104EEE70120EAE700210846AB
:100700004FF00000BAF1000F02D000EB800040086B
:10071000C0F38157012F01DD4FF0FF370E9955EAE5
:10072000040009EB01080BD04FF0020918F5FA7F1D
:1007300016DA4FEACA70002F706008DD012007E06A
:100740004FEACA70C6E900B00FB0BDE8F08F0020D4
:100750003060FFF78FFFC0F800901821084616E0C0
:10076000B8F5FA7F18DD002F02DAF748784401E087
:10077000F6487844D0E90010C6E9001040EACA7093
:100780007060FFF777FFC0F80090142108460FB0A3
:10079000BDE8F04F03F0C4BF002108464FF0000051
:1007A000B8F10001099002DAC7F1000200E03A4610
:1007B00001DAC8F1000106A8FFF7DCFE06AB93E8FA
:1007C000070003AB83E8070044F23E005BEA040144
:1007D0000090584604D144F21E012C465D4600911B
:1007E000210C0904014306D10099240444EA15446C
:1007F0002D041039009104F07F41014306D1009986
:10080000240244EA15642D020839009104F0704175
:10081000014306D10099240144EA15742D01091FF2
:10082000009104F04041014306D10099A40044EA3C
:100830009574AD00891E009104F00041084304D175
:1008400000986D196441401E00904FF001033A4634
:100850006846B8F1000FCDE9014503A902DD00F0BB
:10086000A8FE01E000F07BFEBAF1000F04460D4641
:1008700001D084F00044002108464FF0000009999F
:1008800040F2FF77484010F00C0F07D124F00040F1
:10089000284303D0C4F30A50B84212D1FFF7EAFE4E
:1008A000C0F80090C4F30A50B8420AD1A84878446E
:1008B000D0E90010C6E9001004F000410843706060
:1008C00042E7C6E900543FE72DE9FF4F1F464FF0CE
:1008D000000A4FF0FF38454691B0D7E90146CDF800
:1008E0003CA0FFF70FFEC0680168405C1090B9693A
:1008F00012986D1C8847396A814688470028F6D1CE
:10090000B9F1FF3F0AD0002E24F4D06411DDB9F113
:100910002B0F08D0B9F12D0F0BD102E0404615B0D6
:1009200013E744F48064B96912986D1C8847761EF9
:100930008146600504A901D52D2000E02B20002E62
:1009400001F1010B0DF130088DF810003FDDB9F118
:10095000690F08D0B9F1490F05D0B9F16E0F02D077
:10096000B9F14E0F1CD13B4601A8009580E850021A
:10097000DDE912126FF0020003F039FFC11CCED185
:100980000EE0B96912986D1C884781461398761E4F
:1009900044F4007405600F98401C002E0F9016DD83
:1009A000B9F1300FEDD0B9F1780F02D0B9F1580F8D
:1009B0000DD10F9801280AD13B46CDE90054DDE95D
:1009C0001212001F029603F010FFC11CA7D110994C
:1009D00089453ED144F0800406E01399681CAAF1D1
:1009E000010A44F400740860B9696D1C1298761EFF
:1009F000884730288146F0D02BE01099894505D1F1
:100A0000200603D4761E44F0800418E0484603F024
:100A1000FEFB08B3761E0DF123018B4544F40074F0
:100A200008D2A9F130000BF8010B200607D5AAF176
:100A3000010003E0200602D40AF101008246A0056D
:100A400002D51399681C0860B96912986D1C884713
:100A50008146002ED1DC53E0002E51DDB9F1650F47
:100A600002D0B9F1450F4BD1A00549D5B9696D1C2C
:100A70001298761E24F440748847002E81460CDDBF
:100A80002B2804D0B9F12D0F07D144F48074B96933
:100A900012986D1C8847761E8146E00501D52D21F0
:100AA00000E02B2108F8011BCDF8008021E0761E24
:100AB0000DF13901884544F400740CD2A9F13000DD
:100AC00010F0FF0088F8000002D10099884509D98C
:100AD00008F1010806E0E00501D51E4801E042F2F8
:100AE0000F708246B96912986D1C88478146139829
:100AF0000560002E04DD484603F089FB0028D6D1AE
:100B0000F96912988847FF2053468BF8000088F84F
:100B1000000000200A900B9004AA0CA90AA8FFF775
:100B2000ADFDA00502D46FF00100F8E614F0240F2B
:100B300012D0E0071CD13868DDE90A12031D3B60C2
:100B40000068C0E9001213E09041000082410000FB
:100B500046400000F1D8FFFF0AA9684603F044FBB5
:100B6000E00705D13868009A011D3960006802600D
:100B70002846D4E64FF0013C50F8042B51F8043BD2
:100B80009A4221D1A2EB0C03934313EACC1317D161
:100B900050F8042B51F8043B9A4215D1A2EB0C03F8
:100BA000934313EACC130BD150F8042B51F8043BB8
:100BB0009A4209D1A2EB0C03934313EACC13DBD086
:100BC0004FF00000704700BFD01A01BAB1FA81F1AE
:100BD00001F0180122FA01F0CB40C1F12001DBB293
:100BE000C0B2C01A2CFA01F3D11A914311EAC31111
:100BF000E6D1704701491820ABBEFEE7260002008F
:100C0000704700002DE9FF4F1F464FF03C0987B0A9
:100C10004FF00042DDE9141001F10108DDF858A0A1
:100C200002EA4050039000200590834605460446A2
:100C30000490B969461E08988847AAF1010A0290F3
:100C4000BAF1000F3BDD02982E2815D0102100F0DC
:100C500016FA00282EDB4FF0010B0599014317D03F
:100C6000B9F1000F0BDB4A46C11700F0F5F9054357
:100C70000C43A9F1040905E0012004900BE008B140
:100C800045F0010501200590049820B9361D02E0C9
:100C9000049800B1361FB969089808F1010888471F
:100CA000BBF1000FAAF1010A0290C9D00999C1F85D
:100CB0000080C5E70298702808D0502806D0F9694E
:100CC00008988847BBF1000F14D04FE00020029035
:100CD0000120BBF1000F049009D0B969089808F110
:100CE00001088847AAF10109B9F1000F07DCF96989
:100CF000089888476FF001000BB0BDE8F08F2B28F3
:100D000004D02D280CD14FF0FF300490B969089819
:100D100008F101088847A9F10109B9F1000FE6DDE2
:100D2000411CE4D00A2100F0AAF90028DFDB029977
:100D300008F1010801EB810100EB41000290B96963
:100D4000089888470A2100F09AF9099AA9F101093F
:100D5000B9F1000FC2F8008001DD0028E7DAF96977
:100D6000089888470499029800FB016655EA040038
:100D700004D004F04041090002D006E0039898E056
:100D8000A40044EA9574AD00B61E04F000410800CA
:100D900002D16D196441761E159810F0240F03D00E
:100DA0004FF00B095C4803E04FF028096FF07D001D
:100DB0008246564507DAAAEB06018944B9F1410F8C
:100DC00001DD4FF0410901200021A9F1010200F0ED
:100DD00043F9024628400B462140084301D0012137
:100DE00000E00021501E029143F1FF3128402140D4
:100DF000084301D0012000E000200299834651EA17
:100E00000B014FD0002108464FF00000039900F479
:100E1000400039B100EB80004FF4400100EBD0708E
:100E200001EA60008015012802DD4FF0FF3000E08C
:100E300013D0401C36D0029860B3BBF1000F0CD128
:100E40004A460120002100F007F9284021400843CC
:100E500001D0012000E00020E0B101204A4600213D
:100E600000F0FAF8034640190A4661412D1A8C41F8
:100E700011D3B9F1400F09DD159810F0240F02D0FD
:100E8000AAF1340603E0AAF1170600E0761C00255B
:100E90004FF0004406E05B1E42F1FF3220EA0305FA
:100EA00021EA0204CAF10100B04206DA1B490398A4
:100EB00008430190002000900EE0039AC4F3D32170
:100EC000E80A0A43164940EA44500A433146CDE94C
:100ED0000002684603F091F9159810F0240F0BD02A
:100EE0001598C00715D13868DDE90012031D3B6075
:100EF0000068C0E900120CE002A8694603F074F92A
:100F00001598C00705D13868029A011D396000683C
:100F100002604046F0E6000002FCFFFF0000F07FA8
:100F20000000F03F2DE9FF4F92461D4685B04FF07F
:100F30000041DDE9124BDDE914727F1E01EA4B50DE
:100F4000414940F0FF4940EA0108002122F0200019
:100F50004928049102D04E2828D04CE03BA001261D
:100F600007C88DE80700A9690698641C88477F1E9A
:100F7000014606D41DF8060018B121F02001814277
:100F80000BD0E96906988847032E34D0082E32D05A
:100F90006FF0010009B0BDE8F08F761C032E01D080
:100FA000082EE0D1601CCAF80000DCE7A9690698A9
:100FB000641C88477F1E2AD420F02000412826D1B7
:100FC000A9690698641C88477F1E20D420F0200061
:100FD0004E281CD1A9690698641C88477F1E48F4D6
:100FE000002849F48009CAF8004001D4282806D016
:100FF000E969069888475FEACB7012D022E0A969B8
:101000000698641C88477F1E01D4002803DAE9692A
:1010100006988847BCE72928F1D1641CCAF800402B
:10102000E9E71BF0240F07D028680499031D2B6003
:101030000068C0E9001805E02868021D2A60006801
:10104000C0F800902046A5E70000F07F494E4649D1
:101050004E49545900000000B2F120030AD5C2F1F4
:10106000200301FA02F120FA03F300FA02F041EA48
:101070000301704700FA03F14FF0000070473A286F
:1010800000D2303820F02002412A01D3A2F13700EB
:10109000884201D34FF0FF30704720F07F4C80EA48
:1010A000030023F07F47ACEB070303F57C5300F00C
:1010B000004003F1FF032DE980494FEA154B09B4C5
:1010C0004FEA144325EA0B4E24EA03480FF20426A4
:1010D00006EB132749083E785FEA320203FB0667F6
:1010E000C7F5000707FB06F64FEA54374FEAD64626
:1010F00006F1020607FB066CCCF1005C4FEA1C47C8
:101100002CEA074C07FB06F40CFB06F504EB15462E
:101110004FEA961634BF00204FF000404FEAD13717
:1011200006FB07FC4FEA1C4C0CFB0BF7D21B03FB26
:101130000CF761EB07010CFB0EF7B0EB074072EB0D
:1011400017420CFB08F734BFA2EB0742B2EB074291
:1011500061EB17414FEA0C444FEA910706FB07FC8D
:101160004FEA1C4C0CFB0BF7B0EBC74072EB57324D
:1011700003FB0CF734BFA2EBC742B2EBC74261EBF3
:1011800057310CFB0EF7B0EBC70072EB57720CFB3C
:1011900008F734BFA2EBC702B2EBC70261EB57718D
:1011A000039F4FEA816141EA921104EBCC044FEABC
:1011B000D1374FEA826206FB07FC42EA90124FEAFF
:1011C00080604FEA1C4C0CFB0BF7D21B03FB0CF7A7
:1011D00061EB07010CFB0EF7B0EB074072EB174217
:1011E0000CFB08F734BFA2EB0742B2EB074261EBFE
:1011F00017414FEA8C554FEA910704EB9C2406FBFC
:1012000007FC4FEA1C4C0CFB0BF7B0EBC74072EB32
:10121000573203FB0CF734BFA2EBC742B2EBC74215
:1012200061EB57310CFB0EF7B0EBC70072EB577256
:101230000CFB08F734BFA2EBC702B2EBC70261EBAD
:10124000577115EB4C254FEA816141EA92114FEA43
:1012500082624FEAD13742EA901206FB07FC44F162
:1012600000044FEA80604FEA1C4C0CFB0BF7D21BCA
:1012700003FB0CF761EB07010CFB0EF7B0EB07402B
:1012800072EB17420CFB08F734BFA2EB0742B2EB3C
:10129000074261EB174115EB1C154FEA813141EA1A
:1012A00092414FEA823242EA90424FEA80304FEA5E
:1012B0000C7644F1000448EA03434EEA0B484FF031
:1012C000000EB2EB080C71EB030724BF62463946EF
:1012D0004EEB0E0E4FF0000B0018524149414BEB04
:1012E0000B0BB2EB080C71EB03077BF1000B24BF77
:1012F000624639464EEB0E0E4FF0000B001852417D
:1013000049414BEB0B0BB2EB080C71EB03077BF184
:10131000000B24BF624639464EEB0E0E51EA02071F
:1013200018BF46F0010616EB0E7655F1000254F197
:10133000000103D5BDE88901BDE80088BDE8890149
:10134000BDE80048B619524141EB0101A3F1010388
:10135000704780807F7E7D7C7B7A79787776767522
:101360007473727171706F6E6E6D6C6C6B6A6A699A
:101370006868676666656464636362616160605F34
:101380005F5E5E5D5D5C5C5B5B5A5A5959585857AD
:101390005756565555555454535352525251515015
:1013A00050504F4F4F4E4E4D4D4D4C4C4C4B4B4B68
:1013B0004A4A4A49494948484847474747464646AE
:1013C00045454544444444434343434242424241E9
:1013D0004141000046EA0646A3F570534FEA16461F
:1013E00046EA42564FEAD22242EA415210B54FEA4B
:1013F000D121A3F1010300F02FF820F0004000F10B
:10140000020C00F0004701EB00501146BCF5006FE4
:1014100040EA070000D210BDBAF1000F0AD01CB597
:1014200003B44FF004004FF004014FF000000FBC74
:10143000BDE810404FF00001BBF1010FB9BF0448F7
:101440004FF0FF310348002140EA070010BD00BF04
:10145000FFFFEF7F0000F07F002B9C4630D4770029
:101460002BD01CB54FEA370703B44FF010004FF0F4
:101470001001BAF1000F06D0BCF1000FDCBF40F044
:10148000080040F008014FF000000FBCBDE810401C
:101490000BF1010BBBF1010F08BF5FEA170722BF79
:1014A00012F1010211F101014FF0004143F100037B
:1014B00000F0004043EA00007047F9D35708D0E736
:1014C00046EA064613F1400F4FEA16461FDD13F1B8
:1014D000200FDFBF16430A46002120335B42BED0F7
:1014E000C3F1200746EA064602FA07F74FEA164616
:1014F00046EA0706C3F1200722FA03F201FA07F7CA
:1015000021FA03F14FF0000342EA0702A7E746EA97
:10151000020646EA06464FEA164646EA0106BCBF00
:1015200046EA0646360C4FF000034FF000024FF03B
:10153000000194E72DE9804C9A46934670B491E8F7
:10154000380007C831EA400C48BF34EA430C03D5E1
:10155000FFF7A3FDFFF780FFF0BCBDE8008C2DE98D
:10156000804C9A46934670B491E8380007C831EA37
:10157000400C48BF34EA430C03D5FFF78EFDFFF75C
:1015800029FFF0BCBDE8008C2DE9804C9A469346BB
:1015900070B491E8380007C810F0804F08BF13F00E
:1015A000804F03D100F01AF8FFF756FFF0BCBDE8FA
:1015B000008C2DE9804C9A46934670B491E838002F
:1015C00007C810F0804F08BF13F0804F03D100F020
:1015D00005F8FFF7FFFEF0BCBDE8008C20F07F4768
:1015E00080EA030023F07F4C07EB0C03A3F57C5348
:1015F00000F00040A3F1FE0392F0000F00F0B38072
:1016000095F0000F00F077802DE901494FEA114075
:101610004FEA144621EA004800FB06FC24EA06478C
:1016200008FB06F607FB08F800FB07F718EB06486F
:101630004CEB164C4FEA124B18EB07484FEA154695
:101640004CEB174022EA0B4E0BFB06FC25EA064743
:101650000EFB06F607FB0EFE0BFB07F71EEB064E16
:101660004CEB164C4FF000061EEB074E4CEB174BA5
:1016700018EB0B0840F1000018EB0E0B58EB0008BC
:1016800040F100008F1A4FF000013CBFC943661BB8
:1016900014BFB5EB040C00213CBFC943F61B4FEA55
:1016A00017444EEA8E0E27EA04454FEA1C4704FB16
:1016B00007622CEA074C05FB07F70CFB05F604FB59
:1016C0000CFC16EB074642EB174216EB0C4642EBBE
:1016D0001C421BEB060658EB0202414146EA9E06FD
:1016E00001D5BDE80189B619524141EB0101A3F1D1
:1016F0000103BDE801894FEA14454FEA114724EA86
:10170000054621EA074C05FB07F406FB07F70CFB2F
:1017100006F105FB0CFC11EB074144EB17444FEAC3
:10172000124711EB0C4144EB1C4422EA074C05FB29
:1017300007F206FB07F70CFB06F605FB0CFC16EBA5
:10174000074642EB174216EB0C4642EB1C456A1863
:1017500054F1000148BF7047B619524141EB0101F5
:10176000A3F10103704795F0000F37D04FEA114203
:101770004FEA144721EA024624EA074C02FB07F12C
:1017800006FB07F70CFB06F402FB0CFC14EB07440A
:1017900041EB17414FEA154714EB0C4441EB1C4158
:1017A00025EA074C02FB07F506FB07F70CFB06F6DC
:1017B00002FB0CFC16EB074645EB174516EB0C46F7
:1017C00045EB1C42121951F1000148BF7047B61990
:1017D000524141EB0101A3F1010370474FEA144567
:1017E0004FEA114724EA054621EA074C05FB07F1B9
:1017F00006FB07F70CFB06F24FF0000605FB0CFC9E
:1018000012EB074241EB174112EB0C4251EB1C412A
:1018100048BF7047921841EB0101A3F101037047E3
:1018200002461021014801F055B80000001C02409A
:1018300002462021014801F04DB80000001C024082
:1018400002460421014801F045B80000001C024096
:1018500002460821014801F03DB80000001C02408A
:1018600010B5044600F00100FFF7E2FFC4F34000AA
:10187000FFF7D6FFC4F38000FFF7EAFFC4F3C00010
:10188000BDE81040FFF7DCBFFEE70000014800F0B4
:101890008CBA000070000020014800F086BA0000F9
:1018A00070000020014800F080BA000070000020A5
:1018B000014800F07ABA000098000020014800F0CA
:1018C00074BA000098000020014800F06EBA0000D1
:1018D0009800002030B58BB08D0701F003040DD5C2
:1018E000C2F34F35D20042EA4402CDE90052C3F3BD
:1018F0004F320292DA0042EA440205E052010092BD
:1019000062005B01CDE901230392CA08C1F38001A3
:10191000CDE90412002106910121079108910E21C1
:101920000991694600F040F90BB030BD2DE9F04156
:101930001E46174688460446069D00F0B1FC216805
:101940004A6942F002024A6121684A6942F0100283
:101950004A6108B100F0ABF80F492068884201D114
:101960000E4804E00E49884203D10C480830C0E913
:10197000004533463A4641462046FFF7ABFF022179
:10198000204600F096F8002803D0BDE8F04100F0B2
:101990008EB8BDE8F0810000006400401400002013
:1019A0000068004010B58AB000234FF480440693CD
:1019B0000793A24202DA6442A24200DC22464FF4BC
:1019C0000074CDE9004308240293CDE903348DF877
:1019D0001430490049B206AB140A5C54194408ABF0
:1019E0004A7006AA694600F076F80AB010BD0000F9
:1019F000014800F0E3BC000008010020014800F0AD
:101A0000DDBC00006801002001681823CAB2103A4A
:101A1000B2FBF3F2054B6FF30901032A9B5CC3652C
:101A200000D9091D8165084670470000224800085A
:101A300010B5014600208B698A6A4FF0C07453B11B
:101A4000B3F5005F15D072B1012A0CD0022A0AD07A
:101A5000032A09D104E01AB1012A06D0022A03D1CF
:101A6000C96AC90100D5012010BDC96AA142FAD0D6
:101A700010BD002AF7D0012AF2D0022AF3D0032A9F
:101A8000F3D010BD30B50468256825F480252560A5
:101A9000046863608368402B036803D09960006822
:101AA000C26030BD9A600068C16030BD704772B6D8
:101AB000FEE790F82020012A07D0022A05D0416ACB
:101AC00041F48021416201207047006842690A4365
:101AD000426100207047F0B590F820500468A46877
:101AE000012D05D0022D03D0416A41F4802157E039
:101AF00014F0406F01D1E5004FD5C4F30164012516
:101B0000A5401D608D684FF4C0739DB1CE6835430C
:101B10004E6845EAC605066803EB0417F5514FF415
:101B2000C275076805EB04150E697E51097D012910
:101B300005D009E00E88CD6845EA4655EBE7016817
:101B40004E5946F480764E511179D579567941EA4D
:101B5000056195792D0445EA062529434FF4C6769B
:101B6000056806EB0416A9511178D57841EA05619C
:101B7000957852782D0445EA022211434FF4C4753A
:101B8000026805EB04155151006803EB041142583B
:101B900042F0010242500020F0BD416A41F40011C0
:101BA00041620120F0BD000010B590F82020012A0C
:101BB00007D0022A05D0416A41F480214162012008
:101BC00010BD3B48D0F8002242F00102C0F80022CC
:101BD000D0F8002222F47C52C0F80022D0F8002273
:101BE0004B6A42EA0322C0F800220A7D02F01F037A
:101BF00001229A40D0F81C329343C0F81C32CB69C2
:101C0000B3B9D0F80C329343C0F80C328C894B68CE
:101C100064F31F434C6900EBC404C4F840320C89E0
:101C20000B6864F31F434C6900EBC404C4F84432EE
:101C3000CB69012B16D1D0F80C321343C0F80C320B
:101C40000C884B6864F31F434C6900EBC404C4F870
:101C500040320C89CB6864F31F434C6900EBC40429
:101C6000C4F844328B69002BD0F804320ED01343F1
:101C7000C0F804320B69002BD0F8143208D013439B
:101C8000C0F81432096A012904D008E09343EFE751
:101C90009343F5E7D0F81C121143C0F81C12D0F89A
:101CA000001221F00101C0F80012002010BD000058
:101CB00000640040704770B590F82040012C05D0BA
:101CC000022C03D0416A41F4802128E0046809B362
:101CD0002469A40720D04FF4D874056804EB0114DC
:101CE0002D5915F00405956005682D591AD0ED0899
:101CF000556005682C5904F00204D4604FF4DA747E
:101D0000056804EB01142E5906F00F06082E0CD3BB
:101D100008250DE0E468DCE7416A41F40011416206
:101D2000012070BD6D0D1560E3E72D5905F00F051D
:101D3000156105682D59C5F30725956105682C596E
:101D4000240C54614FF4DC72046802EB0112A458B5
:101D50001C700468A458240A5C700468A458240CFD
:101D60009C700468A258120EDA704FF4DE72046898
:101D700002EB0112A4581C710468A458240A5C7177
:101D80000468A458240C9C710468A258120EDA71DD
:101D9000006829B1016941F020010161002070BD96
:101DA000C16841F02001C160F8E72DE9F05F054608
:101DB000006800244669D0F804908768D0F80CB019
:101DC000D0F810A0D0F81880F10748D0F90714D047
:101DD00001218160B80703D5284600F08EFA0CE097
:101DE000780702D54FF4006407E0380702D54FF4B6
:101DF000805402E0284600F07FFAF80516D52968DD
:101E00004FF480708860B80503D5284600F077FA53
:101E10000CE0780502D544F4005407E0380502D5FB
:101E200044F4804402E0284600F068FAF80316D52E
:101E300029684FF480308860B80303D5284600F045
:101E400060FA0CE0780302D544F4004407E038035C
:101E500002D544F4803402E0284600F051FA3007FD
:101E600007D55FEACB6004D52968102044F40074DC
:101E7000C86070074FF0080707D55FEA0B7004D5FC
:101E80002868C760284600F0B9F9B00706D5286869
:101E9000C068800702D0284600F0B2F9700607D566
:101EA0005FEACA6004D52968102044F480640861A0
:101EB000B00607D55FEA0A7004D52868076128468E
:101EC00000F0C4F9F00606D528680069800702D042
:101ED000284600F0BDF9B00308D55FEAC96005D512
:101EE000296810204860284600F0D8F9F00307D58B
:101EF0005FEA097004D528684760284600F002FAB6
:101F0000300446D55FEA497040D5F00504D55FEA54
:101F1000C87001D044F00104B00504D55FEA8870B0
:101F200001D544F00204700504D55FEA487001D57C
:101F300044F00404300529D518F0700F26D008F0BD
:101F40007000402815D006DC102809D020280AD0BF
:101F5000302816D10AE050280ED0602811D10EE0AA
:101F600044F008040DE044F010040AE044F02004BA
:101F700007E044F0400404E044F0800401E044F44D
:101F800080742868816921F07001816129680420CA
:101F90004860002C05D0686A204368622846FFF735
:101FA00089FEBDE8F09F70B5040003D094F82000CE
:101FB00010B104E0012070BD204600F081F82068D7
:101FC000016841F00101016000F08AFC0546052628
:101FD00004E000F085FC401B0A2811D82068406806
:101FE000C007F6D02068016821F00201016000F00E
:101FF00077FC05460BE000F073FC401B0A2806D96D
:10200000606A40F40030606284F82060D2E72068A3
:1020100040688007EFD4207E0128206801683DD009
:1020200021F080010160607E01282068016838D0BD
:1020300021F040010160A07E01282068016833D0B2
:1020400021F020010160E07E0128206801682ED087
:1020500041F010010160207F01282068016829D02B
:1020600021F008010160607F01282068016824D008
:1020700021F004010160D4E902010843D4E904120B
:10208000114308436168491E08432168C861002064
:102090006062012084F82000002070BD41F08001C2
:1020A000C0E741F04001C5E741F02001CAE721F057
:1020B0001001CFE741F00801D4E741F00401D9E76E
:1020C000F0B587B0044614216846FEF764F9464B24
:1020D0004648DFF810E11968D4F800C0434A0325E8
:1020E0000226092710300024491CF44532D119601A
:1020F000012907D1016841F000710160006800F01A
:1021000000700590106840F0080010601068CDE97C
:10211000005600F00800CDE9047069463448CDE966
:10212000024500F0BDFA00221146132000F046FCE3
:10213000132000F035FC00221146142000F03EFC74
:10214000142000F02DFC00221146152000F036FC72
:10215000152043E0DFF89CE0F44541D1D0F800C001
:102160004CF0806CC0F800C0D0F800C001290CF021
:10217000806CCDF814C0196007D1016841F000717E
:102180000160006800F000700590106840F00200E7
:102190001060106802AB00F0020005904FF4405050
:1021A000CDE9000683E8B0006946134800F078FAEC
:1021B000002202213F2000F001FC3F2000F0F0FB54
:1021C00000220121402000F0F9FB402000F0E8FB54
:1021D00000220121412000F0F1FB412000F0E0FB52
:1021E00007B0F0BD0064004000000020303802401D
:1021F000000C0240006800400004024070470000EC
:1022000010B50E4A01680E4B914206D1A3F11C0293
:102210000021FFF750FD0B4809E00B4A91420CD119
:10222000074A00211C3AFFF746FD0648083041687E
:102230000348BDE810401C38084710BD006400404A
:10224000E4010020140000200068004070470000F6
:1022500010B50E4A01680E4B914206D1A3F11C0243
:102260000121FFF728FD0B4809E00B4A91420CD1F0
:10227000074A01211C3AFFF71EFD06480830416855
:102280000348BDE810401C38084710BD00640040FA
:10229000E4010020140000200068004070470000A6
:1022A00070B5044690F82000012804D0606A40F41C
:1022B0000020606218E0022084F820002068016895
:1022C00021F00101016000F00BFB05460EE000BFAC
:1022D00000F006FB401B0A2808D9606A40F4003071
:1022E0006062052084F82000012070BD20684068ED
:1022F000C007EDD1606270BD70477047704770478E
:102300007047704770472DE9F0410446876D00F033
:10231000E7FA064694F835000025022806D080200A
:10232000606584F834500120BDE8F08120680168C0
:1023300021F0160101602068416921F080014161AE
:10234000206C08B9A06C20B12068016821F0080158
:1023500001602068016821F0010101600CE000F0DB
:10236000BFFA801B052807D920206065032084F868
:10237000350084F83450D7E720680068C007EED1F4
:1023800094F85C103F208840B860012084F8350044
:1023900084F834500020C7E790F83510022903D0A4
:1023A0008021416501207047052180F835100068C3
:1023B000016821F001010160002070472DE9F84318
:1023C00004464FF00009CDF8009063484FF41651D1
:1023D000A56D0068B0FBF1F72E6894F85C1008203A
:1023E00000FA01F131420FD021680A6852070BD57B
:1023F0000A6822F004020A6094F85C108840A86021
:10240000606D40F00100606594F85C104FF00108C9
:1024100008FA01F0304208D021684969090604D55C
:10242000A860606D40F00200606594F85C100420C4
:102430008840304208D021680968890704D5A8601F
:10244000606D40F00400606594F85C1010208840D6
:10245000304218D021680968090714D5A86020689F
:102460000168490304D50068000308D5A16C07E0A2
:102470000168C90503D4016821F008010160216CDD
:1024800009B12046884794F85C10202088403042EB
:1024900031D021680968C9062DD5A86094F83500A7
:1024A00005282068016806D0490347D50068000365
:1024B0001DD4616C1CE021F01601016020684169A7
:1024C00021F080014161206C08B9A06C20B1206826
:1024D000016821F00801016094F85C103F208840F9
:1024E000A86084F8358084F83490216D1FE0E16B9A
:1024F00009B120468847606D00282BD0606DC00769
:1025000014D0052084F835002068016821F001010D
:1025100001600098401C0090B84203D82068006811
:10252000C007F6D184F8358084F83490E16C002936
:1025300010D001B02046BDE8F04308470168C90546
:10254000D5D4016821F01001016084F8358084F849
:102550003490CCE7BDE8F883100000202DE9F0416D
:10256000044600F0BDF906465CB1022084F835004F
:10257000002584F834502068016821F001010160D1
:102580000DE00120BDE8F08100F0AAF9801B0528CC
:1025900005D920206065032084F83500F2E7206823
:1025A0000068C007F0D12268116820480140D4E9D2
:1025B00001031843D4E903363343184363691843CE
:1025C000A3691843E3691843236A18430843616AFF
:1025D000042903D1D4E90B13194308431060206880
:1025E0004069666A20F0070130460E43012704283F
:1025F0000CD1A06A0643E06A40B12046FFF718FA02
:1026000020B14020606584F83570BAE720684661E3
:102610002046FFF7F9F994F85C203F219140816052
:10262000656584F835700020ACE700003F8010F04D
:102630002DE9F0410446866D90F83400002501280C
:102640000DD0012084F8340094F835700020012F5B
:1026500007D084F8340002252846BDE8F081022026
:10266000FBE7022784F8357060652046FFF70AFA19
:1026700094F85C103F208840B0602068016841F009
:1026800016010160206C20B12068016841F008014A
:1026900001602068016841F001010160DCE7000091
:1026A0002DE9F84FDFF8F8A10022012403254FF0AF
:1026B0000F090AF1040BAAF1040E00BF0B6804FA1B
:1026C00002F63340B34270D10F7907F00307012FB0
:1026D00001D0022F16D187684FEA420805FA08FC9C
:1026E00027EA0C07D1F80CC00CFA08FC4CEA070CDE
:1026F000C0F808C04768B7430E79C6F30016964085
:102700003E4346600E79F643B6070AD0C7684FEAE3
:10271000420C05FA0CF6B7438E6806FA0CF63E43F7
:10272000C6600E7906F00306022E10D1D60800EB23
:102730008608D8F8206057074FEAD76C09FA0CF7DB
:10274000BE430F6907FA0CF73743C8F820700668D4
:102750004FEA420C05FA0CF7BE430F7907F0030766
:1027600007FA0CF7374307604E6816F4403F1CD059
:102770004C4E376847F480473760366822F00307CD
:1027800006F480460096484E07EB060CDCF8086815
:1027900097073F0F09FA07F826EA0806DFF80C81C9
:1027A000404503D14FF0000841E072E0DFF80081BE
:1027B000404502D14FF0010839E0DFF8F88040458C
:1027C00002D14FF0020832E0DFF8EC80404502D140
:1027D0004FF003082BE0DFF8E480404502D14FF0D2
:1027E000040824E0DFF8D880404502D14FF0050806
:1027F0001DE0DFF8D080404502D14FF0060816E01A
:10280000DFF8C480404502D14FF007080FE0DFF841
:10281000BC80404502D14FF0080808E0DFF8B080E6
:10282000404502D14FF0090801E04FF00A0808FACC
:1028300007F848EA0608CCF80888DAF80060574636
:10284000D1F804C09E435FEACC2C00D51E433E6005
:10285000DBF800605F46D1F804C09E435FEA8C2C31
:1028600000D51E433E60DEF800607746D1F804C014
:102870009E435FEA8C3C00D51E433E60084F083FF4
:102880003E68D1F804C09E435FEACC3C00D51E43AD
:102890003E60521C102AFFF411AFBDE8F88F000013
:1028A000083C014044380240003001400000024032
:1028B0000004024000080240000C024000100240E8
:1028C0000014024000180240001C02400020024098
:1028D000002402400AB1816170470904FBE700004F
:1028E00001488068704700000400002002488168A9
:1028F0000278114481607047040000200B4810B535
:10290000016841F400710160016841F48061016077
:10291000016841F480710160032000F06FF800202D
:1029200000F006F800F024F8002010BD003C024042
:1029300070B50D4D04464FF47A712878B1FBF0F074
:102940000A490968B1FBF0F000F044FB48B9102CCB
:1029500007D200222146501E00F030F800206C60A3
:1029600070BD012070BD0000040000201000002098
:102970000A4808B5016841F480410160006800F42C
:10298000804000900548001F016841F080510160BF
:10299000006800F08050009008BD000044380240FC
:1029A000002809DB00F01F0201219140400980004E
:1029B00000F1E020C0F8001170470000F0B40E4BA9
:1029C0001B680C46C3F30223C3F10705042D00D98D
:1029D0000425191D072901D2002300E0DB1E012672
:1029E00006FA05F1491E214099409E40761E164088
:1029F0003143F0BC01F0D1BA0CED00E0064900F023
:102A0000070208684FF6FF03184040EA0220034A15
:102A100010430860704700000CED00E00000FA056C
:102A20002DE9F8431748016841F0805101600068C2
:102A3000154F00F08050012600903E64FFF750FFD4
:102A400005464FF47A78114C05E000BFFFF748FFC8
:102A5000401B40450DD86068C003F7D57E64FFF782
:102A60003FFF0546464607E0FFF73AFF401BB042EE
:102A700002D90320BDE8F88360688003F4D5002004
:102A8000F8E700004038024000000E4200700040AD
:102A90002DE9F0470E46050065D0DFF81481D8F81F
:102AA0000000F7B200F00F00B04207D288F80070C3
:102AB000D8F8000000F00F00B04254D128683D4C17
:102AC000810712D5400703D5206840F4E05020600C
:102AD0002878000703D5206840F460402060206813
:102AE000A96820F0F000084320602878C0072DD0A6
:102AF000304968680839012812D0022813D0032809
:102B000011D00968890700292DDA216821F0030115
:102B100001432160FFF7E4FE814641F2883A0EE06E
:102B200009688903EFE709688901ECE7FFF7D8FE38
:102B3000A0EB0901514502D90320BDE8F0872068C8
:102B4000696800F00C00B0EB810FEFD1D8F80010ED
:102B5000404601F00F01B14207D90770006800F04C
:102B60000F00B04201D00120E7E72878400705D5E3
:102B70002068E96820F4E0500843206028780007C6
:102B800006D52068296920F4604040EAC100206031
:102B900000F038F82168084AC1F30311515CC840BD
:102BA0000649086006480068FFF7C2FE0020C4E737
:102BB000003C0240083802402A480008100000206B
:102BC000080000200448054900680968044AC1F368
:102BD0008221515CC8407047100000200838024034
:102BE0003A4800080448054900680968044AC1F3E6
:102BF0004231515CC8407047100000200838024044
:102C00003A480008154810B5006810F00C02144846
:102C100013D01449042A0FD0082A0ED10F4C241FB8
:102C20002268236802F03F025B0207D52068C0F3E8
:102C30008810A0FB010106E0084610BD2168C1F321
:102C40008811A1FB00010023FDF72EFB2168C1F3D1
:102C50000141491C4900B0FBF1F010BD08380240A9
:102C60000024F400001BB7002DE9F84F04006ED0DB
:102C70002078DFF84C93C007A9F104054AD009F188
:102C800004000168C1F38101012908D00068C0F384
:102C9000810002280AD1D9F80000400206D5286830
:102CA000800337D560680028E1D033E06068B0F574
:102CB000803F10D0B0F5A02F286810D020F48030CD
:102CC0002860286820F4802028606068A8B1FFF799
:102CD00007FE06460DE0286840F48030F4E740F433
:102CE00080202860F7E700BFFFF7FAFD801B64280B
:102CF00073D828688003F7D50CE0FFF7F1FD06468E
:102D000005E000BFFFF7ECFD801B6428F0D82868C1
:102D10008003F7D42078DFF8AC8280074FF0000AF8
:102D20003ED5A748001D016811F00C0F08D00068BF
:102D3000C0F3810002280BD1D9F80000400207D46B
:102D40002868800716D5E068012800D112E033E139
:102D5000E068B8B10120C8F80000FFF7C1FD0646E1
:102D600005E000BFFFF7BCFD801B0228C0D8286823
:102D70008007F7D52868216920F0F80040EAC100F3
:102D800028600DE0C8F800A0FFF7AAFD064604E0A1
:102D9000FFF7A6FD801B02281FD828688007F7D4FC
:102DA0002078000722D5864F87486169703771B156
:102DB00001210160FFF794FD064604E0FFF790FD56
:102DC000801B022809D838688007F7D50EE0C0F8C4
:102DD00000A0FFF785FD064605E082E0FFF780FDD5
:102DE000801B02287DD838688007F7D420784007F8
:102DF00068D5DFF8CCB100270BF13C0BDBF8000005
:102E0000C0000BD4DBF8001041F08051CBF800106B
:102E1000DBF80000012700F0805000906B4E306816
:102E2000C00510D4306840F480703060FFF758FD62
:102E3000009005E0FFF754FD0099401A022850D891
:102E40003068C005F6D55E4EA0686C3601280FD0FC
:102E50000528306810D020F001003060306820F084
:102E600004003060A068B8B1FFF73AFD00900FE0B1
:102E7000306840F00100F4E740F004003060F7E70C
:102E8000FFF72EFD0099411A41F28830814266D841
:102E900030688007F4D50EE0FFF722FD009007E0D0
:102EA000FFF71EFD0099411A41F28830814256D841
:102EB00030688007F4D42FB1DBF8001021F0805186
:102EC000CBF80010A069C8B33D49091D0968C1F3DA
:102ED000810102294AD00228504607D0C8F8600074
:102EE00000E03CE0FFF7FCFC04463BE04746C8F846
:102EF0006000FFF7F5FC064605E000BFFFF7F0FCB9
:102F0000801B02282BD828688001F7D4D4E9070158
:102F10000843A16A2E4A490802EB0141626A41EA6C
:102F20008211084394F82C1040EA0161C9F800109E
:102F300001203866FFF7D4FC044606E03EE000BFFF
:102F4000FFF7CEFC001B022809D828688001F7D5BE
:102F500034E000BFFFF7C4FC001B022802D90320A5
:102F6000BDE8F88F28688001F4D427E00128F7D065
:102F7000D9F80000E26900F4800191421CD1226A74
:102F800000F03F01914217D147F6C071626A0140DB
:102F9000B1EB821F10D1A26A4FF0FF3300F4403131
:102FA00003EB5202B1EB024F06D194F82C1000F063
:102FB0007060B0EB016F01D00120D1E70020CFE7B6
:102FC0000438024000004742800E47420070004033
:102FD0000000FFFF10B5401EB0F1807F01D301203B
:102FE00010BD4FF0E02460610F21601700F0D5FFA5
:102FF0000020A06107202061002010BD38B50446E4
:1030000090F84200202801D0022038BD51B14AB1C9
:103010000120206300206063204600F033FF216B15
:10302000012901D0012038BD21680A684968009152
:1030300021680C3151E8002F42F0100241E80023D2
:10304000002BF5D138BD00F009BC7047F8B5016818
:1030500004460868CA684B6910F00F0F4FF000056E
:1030600059D003F0010602F49077374365D0C107C9
:1030700005D0D10503D5616C41F0010161644107C0
:1030800005D5D90703D0616C41F002016164810765
:1030900005D5D90703D0616C41F0040161640107D3
:1030A00007D502F02001314303D0616C41F00801E3
:1030B0006164616C00293AD0800604D5900602D57F
:1030C000204600F0F8FD20684069616CC0F3801074
:1030D000090700D460B3204600F0B8FD20684069BD
:1030E000400621D52068143050E8001F21F040012F
:1030F00040E80012002AF5D1E06BA8B172490165E1
:10310000E06BFFF749F9002811D0E06B016D01B0C9
:10311000BDE8F040084783060FD593060DD520463D
:10312000BDE8F84000F0C7BD2046FFF78EFFF8BDB0
:103130002046FFF78AFF6564F8BD266B2023012E29
:103140007ED1C6067CD5D6067AD508684868009038
:1031500048694FF0020640064DD5E26B10684068A2
:103160004FF480770004000C3AD0A18D814237D90A
:10317000E085D069B8422DD020680C3050E8001F9F
:1031800021F4807140E80012002AF5D12068143043
:1031900050E8001F21F0010140E80012002AF5D19B
:1031A0002068143050E8001F21F0400140E8001270
:1031B000002AF5D184F84230256320680C3050E8AD
:1031C000001F21F0100140E80012002AF5D1E06B49
:1031D000FFF799F86663A08DE18D401A81B206E091
:1031E000A18D8142A8D1D069B842A5D1666320469D
:1031F000FFF729FFF8BDA08DE18D401A81B2E08D67
:103200000028F7D00029F5D020680C3050E8002FB6
:1032100022F4907240E80027002FF5D12068143086
:1032200050E8002F22F0010240E80027002FF5D1DE
:1032300084F84230256320680C3050E8002F00E00D
:1032400006E022F0100240E80023002BF3D1CDE786
:1032500005062BD5150629D594F841002128C9D19A
:10326000A068B0F5805F01D12069B0B1206A411C2F
:103270002162216800784860E08C401E0004000C48
:10328000E084B7D12068C16821F08001C160206866
:10329000C16841F04001C160F8BD206A0088C0F3F8
:1032A00008004860206A801C2062E5E74006F3D5EC
:1032B0005006F1D5CA68204622F04002CA6084F860
:1032C000413000F0ADF8F8BD513B000870B5040086
:1032D00004D094F84100002510B106E0012070BD33
:1032E00084F84050204600F023F8242084F8410060
:1032F0002068C16821F40051C160204600F03CFD07
:103300002068016921F4904101612068416921F040
:103310002A0141612068C16841F40051C1606564BF
:10332000202084F8410084F842006563002070BDCD
:103330002DE9F04387B0064614216846FDF72BF8C7
:103340003149306888425BD130480024016841F43B
:1033500080210160006800F4802005902B4810381F
:10336000016841F0080101600068694600F008004A
:1033700005904FF4407000900220CDE90104032035
:103380000390072004902248FFF78AF9224D214834
:103390004FF000672860C5E901744FF48068C5E903
:1033A00003486C614FF40039AC61C5E90749284610
:1033B0006C62FFF7D3F808B1FEF779FBF563AE63F3
:1033C000154D144860353030E5E802074020A5E887
:1033D0001101114845F814496030AC61C5E907494D
:1033E0006C62FFF7BBF808B1FEF761FBB563002222
:1033F00011462720AE63FFF7E1FA2720FFF7D0FA46
:1034000007B0BDE8F08300000048004040380240AB
:10341000000C0240286002400801002070477047FD
:103420007047000070EEC00A9FED081A10EE900A77
:10343000B0F18B4F02DD30EE010A704710EE900ABA
:1034400010F16A5FF9D930EE410A7047000000467A
:10345000FEE7000008B51A4800F0F0F9194800909E
:10346000002340F201226C211748FEF75FFA17484B
:1034700000F044F80F20FEF7F3F914489FED142AEA
:10348000DFED141A9FED141ADFED140A9FED140AF4
:10349000103000F07DF90D489FED122ADFED121A71
:1034A0009FED121ADFED120A9FED120A303000F084
:1034B0006FF9BDE8084064220F490148FFF79EBD3F
:1034C000C0000020C136000870000020B4020020B7
:1034D00000803BC600803B469A99193ECDCC4C3EBD
:1034E000CDCC4C3F00401CC600401C464A0C623FFD
:1034F0006F12033CBC74933D5002002000280BD097
:103500004FF4804141814FF440418181002101818C
:10351000C170416081700180704730B400290ED0C5
:10352000B1F90A40944200DC2246B1F90C409442C1
:1035300000DB22460A8030BC1946FEF733BA30BCA5
:10354000704700000F4810B50D4901600921416026
:1035500000214FF480328160C0E903121201426100
:10356000017641768176C17601774177FEF71BFDC2
:10357000002803D0BDE81040FEF799BA10BD000046
:1035800000640040700000200F4810B50D49016034
:103590000921416000214FF480328160C0E90312AB
:1035A00012014261017641768176C17601774177D9
:1035B000FEF7F9FC002803D0BDE81040FEF777BA0B
:1035C00010BD000000680040980000200D4808B5BC
:1035D000016841F4001101600068002200F400104D
:1035E000009011460C20FFF7E9F90C20FFF7D8F9FD
:1035F000002211460E20FFF7E1F9BDE808400E2039
:10360000FFF7CEB93038024030B587B01421684694
:10361000FCF7C1FE19480024016841F00101016076
:10362000016801F001010591016841F008010160A4
:10363000016801F008010591016841F08001016015
:10364000016801F080010591016841F0020101600B
:1036500000680B4D00F00200059000223C21284636
:10366000FFF738F93C2000900120CDE901046946BC
:1036700028460394FFF714F807B030BD30380240F5
:10368000001C02400C4810B50A4901604FF4E131BA
:103690004160002181600C22C160C0E90412816197
:1036A000C161FFF713FE002803D0BDE81040FEF70C
:1036B000FEB910BD00480040C0000020FEE7000039
:1036C00000F11C0200681149A0F50070013805D016
:1036D000012803D0022801D003280AD1108840BA5B
:1036E0000880508840BA4880908840BA8880907995
:1036F000C880088808814888488188888881C88867
:10370000C8810869401C086170470000340000202F
:10371000FEE770EEC00A90ED050A30EE200A80ED5B
:10372000050A90ED041AD0ED061A30EEC12AB4EE67
:10373000E10AF1EE10FA01DBC0ED051A90ED050A81
:1037400090ED071AB4EEC10AF1EE10FA01D880ED3F
:10375000051A90ED010AD0ED052A20EE220AD0EDDF
:10376000002A02EEA00AD0ED022A02EE820AF4EE4E
:10377000C01AF1EE10FA01D8B0EE610AB4EEC01A28
:10378000F1EE10FA01DBB0EE410AC0ED040A704719
:10379000C0ED061A80ED072A80EC030A9FED030AAC
:1037A00080ED040A80ED050A70470000000000006B
:1037B000F8B50646107814460D464B2803D053281A
:1037C00001D0412818D16946A01C00F0DDFC6078CA
:1037D000502813D00ADC442816D001221549452868
:1037E0001ED049280DD04E2806D11DE0642814D0E3
:1037F00069280FD070280AD00120F8BD86ED000A94
:1038000015E086ED010A12E086ED020A0FE085ED73
:10381000000A0CE085ED010A09E085ED020A06E0E8
:1038200081ED010A0A7002E081ED020A4A7000206F
:10383000F8BD0000280000207047704710B504460E
:1038400064220549FFF7DAFBE06B0068016821F0AC
:103850000801016010BD00005002002010B5006892
:103860000A4A904211D10A4A01201070094A0020E8
:103870005054642207490848FFF7C0FB0648C06B54
:103880000068016821F00801016010BD0048004097
:103890002400002050020020C0000020FFF726B8BE
:1038A00030B593B030216846FCF775FD14210CA8A3
:1038B000FCF771FD1F480025016841F0805101604F
:1038C000006800F0805011901B48016841F44041AD
:1038D00001600068022400F4404011900120009033
:1038E000000401908001CDE9064006200890B42034
:1038F000CDE9090404200B906846FFF7B5F908B13B
:1039000072B6FEE7FFF78CF808B172B6FEE70CA9B5
:103910000F2081E831004FF4A0500F901090052146
:103920000CA8FFF7B5F8002801D072B6FEE713B077
:1039300030BD00004038024000700040024801687D
:1039400041F470010160704788ED00E02DE9F0411D
:103950002DED028BFEF7C4FF6A4C0546608818B94E
:10396000FFF778FD01206080E069281A05287DD3E3
:103970006548E56100260178012906D16449067091
:10398000624AA1F12000FFF713FF624AB2F900007A
:1039900000EE100AB8EEC00A00F0CAFA5E4F5F4DA2
:1039A0003878012833D05E48007801285ED1B5F917
:1039B00000005C4E00EE100A5548D6ED000AB8EE45
:1039C000C00A2038FFF7A5FE84ED010ABDEEC00A4B
:1039D0004F49002310EE100A303902B25248FFF767
:1039E0009CFDB5F9000000EE100AF8EEC00A96ED55
:1039F000000A70EEC00AF5EEC00AF1EE10FA00EE11
:103A0000900AF8EEE00A75D230EE600A74E0474999
:103A1000D1ED000ADFED461A80EEA10ADFED452A5E
:103A2000B2F9000020EE222A00EE100AF0EE420A5F
:103A3000B8EEC00AFFF7F6FCC0EE220A60EEA11A4B
:103A4000C4ED041AD1ED000A31EEE01AB5EEC01A49
:103A5000F1EE10FA01D230EEE11A3749B7EE008AE2
:103A600011EE100A84ED021A884200E046E00ADAFC
:103A70003349DFED320A81EE208A18EE100A8842BF
:103A800001DA9FED308AF0EE420A2148FFF741FE4D
:103A9000B5F9000060EE080A00EE100A1C48B8EE06
:103AA000C00A2038FFF735FE84ED010ABDEEC00ADA
:103AB0001749002310EE100A303902B21A48FFF7F6
:103AC0002CFD2149A068884218DAB5F900000930B8
:103AD000122813D83E709FED1D0A002384ED010AC1
:103AE0000B491A46BDEC028B3039BDE8F0410E4857
:103AF000FFF713BD30EEC00A84ED030ABDEC028B64
:103B0000BDE8F08150000020240000205002002079
:103B1000E40200203C000020290000203E0000209C
:103B2000280000202C000020700000203000002021
:103B30000000B44300F8FF450000A0420000A0428E
:103B40009A99993E9A99993E0000F0410000000030
:103B500010B5806B0021C185FFF777FA10BD70B5F5
:103B6000846B2068406994F84110C0F3C0100025B0
:103B7000212904D118B1E584204600F08EF8206890
:103B8000406994F84210C0F38010222904D118B182
:103B9000E585204600F05AF8606C40F01000606443
:103BA0002046FFF752FA70BD10B50146806B0968D8
:103BB00009684FF00002C9052ED4C28501680C3196
:103BC00051E8003F23F4807341E80034002CF5D124
:103BD0000168143151E8003F23F0010341E800344B
:103BE000002CF5D10168143151E8003F23F0400367
:103BF00041E80034002CF5D1202180F84210016BFF
:103C0000012909D101680C3151E8003F23F010036C
:103C100041E80034002CF5D14263016B012902D048
:103C2000FFF7FCFB10BD818DFFF70DFA10BD10B53D
:103C3000806B01214163016B012902D0FFF7EFFB8B
:103C400010BD818D4908FFF7FEF910BD01680C31E8
:103C500051E8002F22F4907241E80023002BF5D1A7
:103C60000168143151E8002F22F0010241E80023DD
:103C7000002BF5D1016B012909D101680C3151E804
:103C8000002F22F0100241E80023002BF5D1202163
:103C900080F8421000210163704701680C3151E83F
:103CA000002F22F0C00241E80023002BF5D1202193
:103CB00080F84110704708B590F84210222901D0D1
:103CC000022008BD82684FF480539A4201D10169F5
:103CD00021B1816A9A421BD04AB10AE00268816A26
:103CE0005268C2F308020A80816A891C08E00269EE
:103CF00072B10268526802F07F020A70816A491C40
:103D00008162C18D491E0904090CC18503D01BE0E5
:103D100002685268F1E70168CA6822F02002CA60AE
:103D20000168CA6822F48072CA6001684A6922F098
:103D300001024A61202180F8421000214163026B98
:103D4000012A03D0FFF76AFB002008BD0163016868
:103D50000C3151E8002F22F0100241E80023002B23
:103D6000F5D101680A68D20602D50A68496800914F
:103D7000818DFFF768F9E7E770B5044600680169CF
:103D8000E26821F44051114301612169A068E269B0
:103D900008436169114308432168CA6849F20C630A
:103DA0009A430243CA6020684169A26921F44071C4
:103DB0001143416131492068884202D0304988422C
:103DC00002D1FEF70FFF01E0FEF7FCFEE2690023DF
:103DD000192164253226B2F5004F626828D0A0FB75
:103DE0000101930F9200FCF75FFA0146B0FBF5F07A
:103DF0006FF01802504301EB800006EB0010B0FB9F
:103E0000F5F000F0F002B1FBF5F002EB0012B1FBAF
:103E1000F5F06FF01803584301EB800006EB00103B
:103E2000B0FBF5F000F00F0021681044886070BD11
:103E3000A0FB010192185B41FCF736FA0146B0FB8A
:103E4000F5F00201B1FBF5F06FF01803584301EBF8
:103E5000800006EBC000B0FBF5F000F0F80002EBCC
:103E60004002B1FBF5F0584301EB800006EBC000C7
:103E7000B0FBF5F000F00700D6E7000000100140AD
:103E80000014014038B58162044682850020134643
:103E90006064222284F84220E56B1F4AEA63E56BE6
:103EA0001E4A2A64E56B1E4AEA64E26B10650A4604
:103EB0002168E06B091DFEF7BBFB30B11020606488
:103EC000202084F84200012038BD20680168406845
:103ED0000090206948B120680C3050E8001F41F480
:103EE000807140E80012002AF5D12068143050E8B3
:103EF000001F41F0010140E80012002AF5D12068BE
:103F0000143050E8001F41F0400140E80012002A40
:103F1000F5D1002038BD0000A93B00082F3C000867
:103F20005F3B00080148FFF791B80000C000002087
:103F30001548017869B1D0ED060A9FED141A70EEAC
:103F4000600A10EE901A11F16A5F07D970EE810ACB
:103F50000BE080ED060A01210170704710EE901A07
:103F6000B1F18B4F01DD70EEC10ADFED091A80EE71
:103F7000A11AD0ED050ADFED071A41EE210AC0EDC6
:103F8000050A80ED060A7047500000200000004638
:103F900000F8FF450000B443FEE70907090E0028BA
:103FA00004DB00F1E02080F80014704700F00F00FF
:103FB00000F1E02080F8141D7047000000000000B0
:103FC00030B52DED048B81B0B0EE408AF0EE608A02
:103FD0006A4651EC180B00F023F900989FED329BD4
:103FE0007E300090002821DC53EC192B51EC180B8B
:103FF00000F0E0F91AD0002140F608004FF0000070
:10400000044651EC180B00F08FF908EE100A40F648
:10401000080004EA00014FF00000B5EEC08AF1EE9E
:1040200010FA04BF0220FCF776FA2DE00098FF2872
:1040300030DB002108464FF0000000F4400553EC4F
:10404000192B51EC180B00F02BFB8CBF0024012422
:104050000220FCF760FA9FED168A4DB1002C0CBFD0
:104060004FF400004FF48000A84218BF9FED118A62
:10407000042108464FF00000002C01BFB1EE480AB1
:1040800001B0BDEC048B30BDB0EE480A01B0BDEC10
:10409000048B30BD51EC180B00F046F901B000EE76
:1040A000100ABDEC048B30BD0000000000000000D1
:1040B0000000807FFFFF7F7F30B540F2FF742DED61
:1040C000048BF0EE608A18EE901A85B0B0EE408A4C
:1040D0009FED2B9B05468DED008B34EA115147D0A7
:1040E00053EC192B51EC180B00F064F940D02A4620
:1040F00051EC180B00F049FB41EC180B18EE900A3C
:104100008DED008B34EA10501CD053EC192B51EC80
:10411000180B00F04FF92BD10220FCF7FCF900F04E
:1041200053F810EE901A18EE900A8DED020B8DEDFB
:10413000008B61F31E0003909DED020B05B0BDECFA
:10414000048B30BD0220FCF7E6F900F02DF810EEEC
:10415000901A18EE900A8DED020B8DED008B61F335
:104160001E0003909DED020B05B0BDEC048B30BD2D
:1041700005B0B0EE480AF0EE680ABDEC048B30BD25
:10418000000000000000000008B59FED060A0A4686
:1041900001468DED000A6846FCF727F99DED000AFF
:1041A00008BD0000000000009FED050B10B553ECAA
:1041B000102B51EC100B00F075F941EC100B10BDF9
:1041C00000000000000000709FED050B10B553ECDF
:1041D000102B51EC100B00F065F941EC100B10BDE9
:1041E000000000000000001010B5044691ED000B27
:1041F000FFF7E6FE84ED000A10BD10B5044690ED11
:10420000000B0846FFF758FF84ED000B10BD303857
:104210000A2801D2012070470020704700000000EA
:1042200010B582B01446CDE900010023009A236046
:10423000194B21F0004098422ADA024328D0B0F509
:10424000801FA8BF226810DA9FED150B53EC102BCE
:104250009DED000B51EC100B00F024F9CDE90001AD
:104260006FF0350221F0004022600F4B6FF31E51BA
:1042700003EB20501044206041F0FF5040F000500C
:1042800001909DED000B00BF02B051EC100B10BD72
:104290009DED000BF8E700000000F07F000000003B
:1042A000000000000000504302FCFFFFFEF726FB69
:1042B000FFF7F6FAFFF7A8F9FFF788F9FFF742F9D9
:1042C000FFF762F9FFF7DEF9FFF740FBFCE70000BC
:1042D00010B500290AD00878002807D0054878448E
:1042E000FCF748FC002801D0002010BD02487844AB
:1042F00010BD00002A0600002206000010B50029AB
:104300000AD00878002807D005487844FCF732FC2A
:10431000002801D0002010BD0248784410BD0000E4
:104320001A0600001206000021F00042A2F16052BD
:10433000B2F5801F01F0004328BFD2F17F6C0BD98A
:104340005FEA001C43EAC20242EB507018BF70479C
:1043500028BF20F001007047B2F5801FBCBF18468F
:1043600070474FEA410C1CF5001F02D2084600F0CE
:10437000D2B970B500F040F900000089FFF7F6BF30
:104380004FF00040A0F580007047000002494FF058
:10439000000000F0C8B900BF0000F87F491058BF06
:1043A000C1F140415B1058BFC3F140438B42EFF372
:1043B0000080704751EA030C17D41CF5801F58BFCA
:1043C000BCF5801F00F10680994218BF704708BFF6
:1043D0009042704707D711F5801F58BF13F5801F13
:1043E00019D499427047894270471CF5801F08D53F
:1043F000BCF5801FF7D58B4218BF704708BF8242BB
:1044000070474FF4001C1CEB410F38BF1CEB430FEF
:1044100001D28B42704770B500F0EEF8922449004B
:104420004FF000514FF08053FFF7B8BF51EA030C33
:1044300017D41CF5801F58BFBCF5801F00F1068003
:10444000994218BF704708BF9042704707D711F5CF
:10445000801F58BF13F5801F19D4994270478942B5
:1044600070471CF5801F08D5BCF5801FF7D58B421F
:1044700018BF704708BF824270474FF4001C1CEB06
:10448000410F38BF1CEB430F01D28B42704770B510
:1044900000F0B2F8922449004FF000514FF08053E1
:1044A000FFF77CBFDFF848C170B51CEA111E1EBFC4
:1044B0001CEA13159EEA0C0F95EA0C0F00F06F80B2
:1044C00081EA030423EA4C134EEAD47E21EA4C111C
:1044D00041F4801143F48013AE44A1FB024CA0FBD5
:1044E0000365AEF17F7E361955EB0C05A1FB034C3D
:1044F0004CF10003A0FB021C16EB0C06654153F1C6
:104500000003094218BF46F0010613F4007F0BD1E7
:104510004FEA03314FEA0530340341EA155140EACE
:1045200016506FF003020AE04FEAC3214FEAC5209C
:10453000F40241EA555140EA56506FF0020202EB94
:104540002E4201EB025585EACE710AD05FEA440C97
:1045500018BF24F0004450F1000041F1000120EAAE
:10456000D47040F2FE7C624500D270BDA84214BFF8
:104570004FF080444FF04044002E08BF0024BEF1AD
:10458000806FA8BFA1F1C041BDE8704080F2828079
:104590004FF0000001F1C04101F0004170479EEA78
:1045A0000C0F0CEA131518BF95EA0C0F06D04FF04C
:1045B000000081EA030E0EF0004170BD00F01CF80F
:1045C0008900013E00F007B800F009B84FEA430C3B
:1045D0005FEA5C5C08D081EA030100F05BB84FEA57
:1045E000410C5FEA5C5CF6D14FF000000149704776
:1045F0000000FF070000F87F0EF1020E2EF0030E00
:104600005EF8046B364205D4012A43EB030515F529
:10461000001F12D8012841EB010C1CF5001F0CD81B
:104620000ED14FEAD17C15F5001F0CEB4C0C0CF1B0
:10463000020C08BF4CEBD37C04E04FF0080C01E007
:104640004FEAD37C0CEB4C0526FA05F606F007067C
:10465000B6F1040C06D20EEB860CBDE870404CF0AF
:10466000010C6047DFE80CF0090B02024FF000413B
:104670004FF00000A1F5002170BD19461046012839
:1046800051EB010418BFD4F5001484BF002001F0E1
:10469000004170BD0808A0F500114FEA31017047D4
:1046A00053EA010C17D41CF5801F58BFBCF5801FBE
:1046B00000F106808B4218BF704708BF82427047E6
:1046C00007D713F5801F58BF11F5801F19D48B42EF
:1046D00070479B4270471CF5801F08D5BCF5801FB2
:1046E000F7D5994218BF704708BF904270474FF402
:1046F000001C1CEB430F38BF1CEB410F01D2994249
:1047000070470FB40CBC03BCFFF7C1BE4FF0407044
:10471000E1EE100A7047FF2141EAD050C005704712
:104720004FF0000070470CF00F03092B08BF082062
:1047300000F05F800A2B0BD0082B18BF704708BF12
:104740001CF0400F0AD04FF000004FF000017047FE
:104750001CF0400F18BF4FF0004070471CF0100FC6
:1047600008D020F0704300F07F4242EAD3014FEAC4
:104770004370704700F0604021F07F4242EA00023F
:1047800001F07F4040EA727070474FF0FF0C4CF42C
:10479000E06C1CEA11531CBF9CEA030C9445C2BF99
:1047A000DA4201EB02517047002B0DD0BCF1000F33
:1047B0000FD0002A01F00041A4BF41F0E04141F0D8
:1047C0007F614FF00000704701F000414FF00000A2
:1047D000704750EA01334FF09B0C18BF4CF0806CCF
:1047E0007FF4D4AD7047FCF76FB8FCF70BBAFCF759
:1047F00099BB1CF4801F11D01CF4E02F03D06FEA8A
:10480000CC31490070474FF04050EFF3008222F066
:10481000704242EA000282F3008870474FF00000C5
:104820007047000610160006101600000000000079
:10483000000001020304060708090000000001024D
:104840000304000002400000000000A0000000007F
:1048500005400000000000C8000000000C400000FF
:104860000000409C00000000194000000020BCBE79
:104870000000000034400000BFC91B8E000000048F
:10488000B5400000504BCFD06607E2CF01000000DA
:104890006C4100003E8251AADFEEA7340100000007
:1048A000D9420000DCB5A0E23A301F97FFFFFFFFBE
:1048B000B4450000FD25A0C8E9A3C14FFFFFFFFFDD
:1048C000FF3F00000000008000000000FF3F0000EC
:1048D0000000008000000000344A000800000020B2
:1048E00070000000E8010008A44A000870000020E1
:1048F000F808000004020008000000000000F07F3B
:10490000FFFFFFFFFFFFEF7F1C00000043000000E0
:10491000F8FFFFFF0C0000000E0000000F00000079
:104920002E0000001001000043000000F8FFFFFF10
:1049300000404040404040404040414141414140B2
:104940004040404040404040404040404040404067
:1049500040050202020202020202020202020202F6
:1049600002202020202020202020200202020202FB
:104970000202909090909090101010101010101053
:10498000101010101010101010101010020202025F
:1049900002028888888888880808080808080808A3
:1049A000080808080808080808080808020202029F
:1049B00040000000000000000000000000000000B7
:1049C00000000000000000000000000000000000E7
:1049D00000000000000000000000000000000000D7
:1049E00000000000000000000000000000000000C7
:1049F00000000000000000000000000000000000B7
:104A000000000000000000000000000000000000A6
:104A10000000000000000000000000000000000096
:104A20000000000000000000000000000000000086
:104A30000000000000000000010000001000000065
:104A4000000000000024F40000000000000000004E
:104A50000000000000000000000000000000000056
:104A60000000000000000000000000000000000046
:104A70000000000000000000000000000000000036
:104A80000000000000000000000000000000000026
:104A90000000000000000000000000000000000016
:044AA0000000000012
:04000005080001AD41
:00000001FF
